:100000000C943D000C94C7230C94C7230C94C72375
:100010000C94C7230C94C7230C94C7230C94C723B8
:100020000C94C7230C94C7230C94C7230C94C723A8
:100030000C94C7230C94C7230C94C7230C94C72398
:100040000C94C7230C94C7230C945C1F0C94C723F7
:100050000C94C7230C94C7230C94C7230C94C72378
:100060000C94C7230C94C7230100012280012201B4
:100070002800479C0128012A800011241FBECFEFD1
:10008000D8E0DEBFCDBFE8E6F0E040E017C0B591B4
:10009000A59135912591059107FD0CC0959185910C
:1000A000EF01F92FE82F05900D92A217B307D9F7AA
:1000B000FE0104C01D92A217B307E1F7E937F40768
:0E00C00031F70E945D120C941723F894FFCFC5
:1000CE00253032643A253032643A253032640025C8
:1000DE00662C25640054696D653A20257300414CE9
:1000EE004552542120543A25642E25644300543A37
:0C00FE0025642E256443204C3A25640044
:10010A000000803F000020410000C84200007A44FD
:10011A0000401C460050C347002474498096184B7F
:10012A0020BCBE4C286B6E4EF9021550EC78AD60BF
:04013A00CAF249714B
:10013E00696E66696E69747900494E46494E495436
:0A014E0059006E616E004E414E0034
:1001580068076C094C836A9074A07AC0008068882C
:0601680000846C8200819E
:08016E00696E66006E616E000F
:07017600286E756C6C290076
:06017D00286E696C2900E8
:100184002F923F924F926F927F928F92AF92BF9233
:10019400CF92DF92EF92FF920F931F93CF93DF934F
:1001A400CDB7DEB727970FB6F894DEBF0FBECDBF2D
:1001B4003B01882E8A014115510521F0FA01608323
:1001C40071838283F301849187FC8081082E000C63
:1001D400990B8032910509F418C49C012950310906
:1001E4002530310508F411C48D32910539F4FFEF3F
:1001F4006F1A7F0A8F0ABB24B39407C08B9721F42C
:100204002FEF621A720A820AB12CA0E02A2F0A2E5A
:10021400000C330B440BE82C6301C20ED31EE41E06
:10022400F6019491E7FC90819923C1F0842FB901E0
:10023400625C7E4F8F4F6B01E82EFB015491E7FC0B
:100244005081951302C0AF5FE1CF295B3E4F4F4F02
:10025400F901249147FD20819217A9F3A33010F4EA
:1002640030E01FC00115110509F4B7C3A83009F027
:10027400A3E08A2FAA0F990BAA0B680E791E8A1E77
:10028400F801608271828282A8C3AC016A2F405B4C
:100294005E4F6F4FFA01449167FD4081241312C0F1
:1002A4003F5F832F032E000C990BAA0BE82C6301EC
:1002B400C80ED91EEA1EF6012491E7FC2081211103
:1002C400E4CF09C08C5A9E4FAF4FFC018491A7FD27
:1002D4008081281729F3333011F030E027C001154D
:1002E400110509F481C32832E1F420E0822F022EA3
:1002F400000C990B36018E2C680E791E811C97FD1B
:100304008A94F301349187FC3081332351F03932DC
:1003140011F02F5FEBCF0196C80ED91EE11C97FD9B
:10032400EA94F801C082D182E2825EC3832F032E55
:10033400000C990BE82C6301C80ED91EE11C97FD33
:10034400EA94F6012491E7FC2081203311F43F5F05
:10035400EDCF332319F02F7D283541F060E070E0B4
:10036400CB011A821982212C312CB5C10196680E59
:10037400791E811C97FD8A9420E0822F022E000CA6
:10038400990BAA0B860D971DA81DFC018491A7FD4E
:100394008081803311F42F5FF0CFC12CD12C7601F2
:1003A4001C821B821A821982AB808A2D0A2C000CB3
:1003B400990BAA0B1301482C280E391E4A1EF10171
:1003C400849147FC8081982F9F7D903509F4A7C0C4
:1003D4008E3221F4FB2DF061BF2E50C0082E000C8C
:1003E400990B0E94E721892B21F460E070E0CB0196
:1003F40016C3F101449147FC4081842F042E000C64
:10040400990B9C01205331092A30310518F480EDF1
:10041400840F03C00E94402387532B813C812830E2
:100424003105A4F490E0A0E0B0E02CE130E02980B4
:100434003A802219330904C0880F991FAA1FBB1FD1
:100444002A95D2F7C82AD92AEA2AFB2A2B813C8189
:100454002F5F3F4F3C832B8349815A814C5F5F4F11
:100464005A834983A1CF8033E9F46B817C81672B64
:10047400C9F489819A8104979A838983A3948A2DE4
:100484000A2C000C990BAA0B1301482C280E391EB8
:100494004A1EF101849147FC8081982F9F7D9035FD
:1004A40011F73DC0082E000C990B0E94E721892BFF
:1004B40029F3F101449147FC4081842F042E000C60
:1004C400990B9C01205331092A30310518F480ED31
:1004D400840F03C00E9440238753EB81FC81E830E2
:1004E400F105B4F490E0A0E0B0E027E030E02E1B8A
:1004F4003F0B220F331F220F331F04C0880F991F95
:10050400AA1FBB1F2A95D2F7C82AD92AEA2AFB2A8E
:100514002B813C812F5F3F4F3C832B83AFCF8A2DB0
:100524000A2C000C990BAA0B860D971DA81DFC0123
:100534008491A7FD80818F7D803509F056CF81E0BD
:100544008A0D282F082E000C330B440B260D371D63
:10055400481DF901949147FD90819B3229F09D3209
:1005640029F43B2D3860B32E82E08A0D082E000C4E
:10057400990BAA0B680E791E8A1E60E0862F062E40
:10058400000C990BAA0B860D971DA81DFC018491E4
:10059400A7FD8081803311F46F5FF0CF40E050E01D
:1005A4007AE0862F062E000C990BAA0B1C014A2E0A
:1005B400260C371C481C2D823E824F82ED81FE8121
:1005C4009F81849197FD8081082E000C990B9C01DA
:1005D400205331092A30310568F4662331F0FA01D9
:1005E4007E9FA0017F9F500D1124C097480F591F73
:1005F4006F5FD7CF662309F4F8CEB3FE03C05195DD
:10060400419551090115110539F06D817E818F8164
:10061400F801608371838283C114D104E104F1047D
:1006240009F4E3CEF0E8FC1520F42FEFD21AE20A25
:10063400F20A29803A80420D531DF7FC07C0CC0C06
:10064400DD1CEE1CFF1C41505109F7CF43382FEF3E
:1006540052079CF442383FEF530761F0C114D104B0
:10066400E104F10439F04F5F5F4FF694E794D794B7
:10067400C794F0CF41E85FEF0BC0415051094038B7
:1006840051050CF4C7C1C12CD12C760140E850E0CF
:1006940041585F4F052E000C660B770BE7E1440FC2
:1006A400551F661F771FEA95D1F7F9E0F694E79492
:1006B400D794C794FA95D1F7C42AD52AE62AF72AFB
:1006C40099C15EE2F51211C0AB2DA061BA2E4FEFB5
:1006D400641A740A840AE82C6301F301F49087FC19
:1006E400F0804B2D4071B4FEECCF2F2D0F2C000C5D
:1006F400330B205331092A30310550F5EB2DE260DC
:10070400BE2E29813A8129303105E1F0442319F0C4
:1007140031E0231A310849815A814F5F5F4F5A8370
:100724004983AAE0B0E09B01AC010E94222320EDA2
:100734002F0DDC01CB01820F911DA11DB11DBC0148
:10074400CD01C5CF4111C3CF5FEF251A350ABFCF05
:100754002F2D2F7D253409F083C0482D93012F5F61
:100764003F4F4F4FF901549147FD50815D3241F4A1
:10077400AB2DA860BA2EE2E06E0E711C811C09C07C
:100784005B3219F03901842E04C0F2E06F0E711C43
:10079400811CF301349187FC3081303329F42FEF2D
:1007A400621A720A820AF5CF432F032E000C550BEE
:1007B400405351094A30510508F044C03053432F87
:1007C40050E05A834983E82C63015FEFC51AD50AC8
:1007D400E50AF6012491E7FC2081422F022E000C49
:1007E400550B405351094A30510580F5E82C6301FB
:1007F400A2E0CA0ED11CE11C2053E22FF0E02AE053
:10080400329FE00DF11D1124FA83E983F60124914E
:10081400E7FC2081422F022E000C550B4053510956
:100824004A30510598F43AE0E981FA813E9FA001EB
:100834003F9F500D11242053FA01E20FF11DFA835A
:10084400E98304C0E82C63011A821982B3FE0AC04A
:1008540029813A813195219531093A83298302C04E
:100864001A8219820115110531F0B1FE04C0F80194
:10087400C082D182E2820E94481E6B017C0120E08A
:1008840030E0A9010E94AD23882309F4AECD89810B
:100894009A81820D931DFB2DF170F98397FF4DC052
:1008A4009195819591098A30910514F16AE070E07F
:1008B4000E94BF21182F9B83CB010996880F991F93
:1008C400880F991F092E000CAA0B865F9E4FAF4F0D
:1008D400FC015A2F0E94E9229B01AC01C701B60119
:1008E4000E94BA236B017C01812F9B810097B1F098
:1008F400880F991F880F991F092E000CAA0B865F79
:100904009E4FAF4FFC015A2F0E94E9229B01AC017C
:10091400C701B6010E94BA236B017C0120E030E0DC
:1009240040E850E0C701B6010E94AD2387FF62C0D2
:100934002980222009F464C04BC0009709F45AC0EE
:100944008A30910514F16AE070E00E94BF21182FEB
:100954009B83CB010996880F991F880F991F092E35
:10096400000CAA0B865F9E4FAF4FFC015A2F0E94CA
:10097400E9229B01AC01C701B6010E94B6236B01B9
:100984007C01812F9B810097B1F0880F991F880FFC
:10099400991F092E000CAA0B865F9E4FAF4FFC01D6
:1009A4005A2F0E94E9229B01AC01C701B6010E94A3
:1009B400B6236B017C012FEF3FEF4FE75FE7C701E1
:1009C400B6010E94A8231816ACF439803320C1F074
:1009D40060E070E080E890E822C0C12CD12C20E8CF
:1009E400E22E2FE7F22E06C0C12CD12C90ECE92E7A
:1009F4009FE7F92EC701B601B0FE11C090580FC091
:100A040060E070E080E890E00AC02FEF621A720A9A
:100A1400820AD8CBCC0CDD1CEE1CFF1C39CE2796E9
:100A24000FB6F894DEBF0FBECDBFDF91CF911F91FB
:100A34000F91FF90EF90DF90CF90BF90AF908F9089
:0C0A44007F906F904F903F902F9008958E
:100A5000A2E9B1E0EEE2F5E00C9442217C015901FB
:100A6000C457DE4F488359836A83CC58D140C1575D
:100A7000DE4F19821882CF58D140612C712C6E0143
:100A80002EE7C21A2EEFD20A8CE891E08C0F9D1F40
:100A90000397CF56DE4F99838883C159D140C457FD
:100AA000DE4F2881CC58D140C357DE4F9881CD58B6
:100AB000D140C257DE4F8881CE58D140E22FF92F66
:100AC000949187FD9081992309F409C48AE0D601A5
:100AD0001D928A95E9F782E091E08C0F9D1FF60147
:100AE00097838683A0E8B0E0B187A087BE016457F2
:100AF0007E4FC7010E94281F8C01C457DE4F88819A
:100B00009981AA81CC58D140FC012491A7FD208174
:100B1000211116C0C157DE4F28813981CF58D140ED
:100B2000020F131FC157DE4F19830883CF58D140DE
:100B3000FC012491A7FD2081253209F0B9C34FC0E3
:100B4000253241F3C7010E942E1C4C01019609F188
:100B5000C457DE4F2881CC58D140C357DE4F88811F
:100B6000CD58D140C257DE4F9881CE58D140E22FA8
:100B7000F82F849197FD8081082E000C990B881620
:100B8000990639F0B701C4010E9405218EEF9FEF4D
:100B90009AC3C157DE4F88819981CF58D1400196C1
:100BA000C157DE4F99838883CF58D140C457DE4F59
:100BB00088819981AA81CC58D1400196A11DC45742
:100BC000DE4F88839983AA83CC58D140BE016457F5
:100BD0007E4FC7010E94281F080F191F8ECF9C014E
:100BE0004A2F2F5F3F4F4F4FC457DE4F2883398323
:100BF0004A83CC58D140F60115821482F901249120
:100C000047FD20812A3261F40296A11DC457DE4FB0
:100C100088839983AA83CC58D14001E010E002C0B8
:100C200000E010E0C457DE4F688179818A81CC589A
:100C3000D1400E94001ED60115969C938E93149766
:100C4000C457DE4F288139814A81CC58D140F901FF
:100C5000849147FD8081082E000C990BC0970A975C
:100C600058F42F5F3F4F4F4FC457DE4F28833983CF
:100C70004A83CC58D140E4CFCE0184579E4F0E9486
:100C8000201D582EC457DE4F2881CC58D140C35761
:100C9000DE4F8881CD58D140C257DE4F9881CE5863
:100CA000D140E22FF82F849197FD8081082E000C0F
:100CB000990B0E946C23883691052CF58536910599
:100CC0000CF0FBC08136910509F4F7C04CF4853275
:100CD000910509F477C18B35910509F4A2C1D8C2F9
:100CE0008336910509F411C18436910509F0D0C20B
:100CF0009E0121573E4FA601BE016F5F7F4FC70186
:100D00000E94E81F25C08037910509F479C0ACF432
:100D10008E36910509F49EC00CF041C089369105CC
:100D200009F0B6C29E0121573E4FA601BE016F5F7A
:100D30007F4FC7010E945C130BC08537910521F1DD
:100D400088379105B9F18337910509F0A1C20EC129
:100D500097FDB9C2C457DE4F88819981AA81CC58CA
:100D6000D1400196A11DC457DE4F88839983AA8381
:100D7000CC58D1400115110509F050C1652D70E026
:100D8000950141E050E061C09E0121573E4FA60110
:100D9000BE016F5F7F4FC7010E940F2015C09E01EB
:100DA00021573E4FA601BE016F5F7F4FC7010E94D2
:100DB00010190AC09E0121573E4FA601BE016F5F68
:100DC0007F4FC7010E94C71597FD7DC2C457DE4FF4
:100DD00088819981AA81CC58D1400196A11DC45720
:100DE000DE4F88839983AA83CC58D1400115110521
:100DF00009F014C1652D70E0950140E050E025C078
:100E00009E0121573E4FA601BE016F5F7F4FC70174
:100E10000E94C71597FD57C2C457DE4F888199813C
:100E2000AA81CC58D1400196A11DC457DE4F8883BA
:100E30009983AA83CC58D1400115110509F0EEC061
:100E4000950140E050E060EF70E0CE0101960E9415
:100E5000131739C2C457DE4F88819981AA81CC58B3
:100E6000D1400196A11DC457DE4F88839983AA8380
:100E7000CC58D140C057DE4F9881C059D140C1579E
:100E8000DE4F2881CF58D140892F880F880B2983C6
:100E90009A838B838C838D838E838F8388870115C0
:100EA000110509F0BBC0652D70E0950140E050E0F0
:100EB000CE0101960E941317B1C09E0121573E4FEB
:100EC000A601BE016F5F7F4FC7010E94720F97FDA1
:100ED000FAC1C457DE4F88819981AA81CC58D1408C
:100EE0000196A11DC457DE4F88839983AA83CC58ED
:100EF000D1400115110509F091C0652D70E0A501E3
:100F0000CE0101960E94BF1EDEC1B0E85B12C0C1D7
:100F1000F60184819581892B21F481E090E095830D
:100F20008483C457DE4F88819981AA81CC58D140EF
:100F30000196A11DC457DE4F88839983AA83CC589C
:100F4000D140012B59F4D501ED91FC911197CF01BE
:100F500002968D939C930081118102C000E010E005
:100F60009E0121573E4F40E050E027C0B0E85B12A1
:100F70008FC1C457DE4F88819981AA81CC58D14056
:100F80000196A11DC457DE4F88839983AA83CC584C
:100F9000D140012B59F4D501ED91FC911197CF016E
:100FA00002968D939C930081118102C000E010E0B5
:100FB0009E0121573E4F41E050E0B601C7010E941B
:100FC000B91A81C1B0E85B1263C1C457DE4F888192
:100FD0009981AA81CC58D1400196A11DC457DE4FFA
:100FE00088839983AA83CC58D140C7010E942E1CC4
:100FF0008532910581F4C157DE4F88819981CF58A0
:10100000D1400196C157DE4F99838883CF58D14094
:1010100081E090E058C1B7010E94052180E090E096
:1010200052C1E0E85E1234C1012B59F4D501ED91B3
:10103000FC911197CF0102968D939C9300811181B1
:1010400002C000E010E0C457DE4F88819981AA8178
:10105000CC58D1409C014A2F2F5F3F4F4F4FC45770
:10106000DE4F288339834A83CC58D140F90124913B
:1010700047FD20812E3561F40296A11DC457DE4F35
:1010800088839983AA83CC58D1409924939401C032
:10109000912C41E051E0692D70E0CE0101960E9453
:1010A00037231982C457DE4F88819981AA81CC5891
:1010B000D140FC012491A7FD20812D3279F40196C5
:1010C000A11DC457DE4F88839983AA83CC58D14091
:1010D00081E089198FA751E0591933C02D35D9F70F
:1010E0000196A11DC457DE4F88839983AA83CC58EB
:1010F000D14081E08919A0968FAFA097ECCF8823CB
:1011000009F476C08D3259F1C457DE4F8881998138
:10111000AA81CC58D140FC012491A7FD2081E2E0B6
:10112000F0E0EC0FFD1FE20FF11D27FDFA95508353
:101130000196A11DC457DE4F88839983AA83CC589A
:10114000D140C457DE4F288139814A81CC58D140E3
:10115000F901849147FD80818D3589F649C0C157D9
:10116000DE4F6881CF58D140C057DE4F9881C059BB
:10117000D140CF56DE4F8881C159D140E62FF92F9B
:10118000949187FD9081992309F4BECF9D3509F490
:10119000BBCF2F5F3F4F4F4FC457DE4F288339835C
:1011A0004A83CC58D140CF56DE4FE881F981C159EE
:1011B000D140608181819281E62FF82F849197FD43
:1011C0008081082E000C990BF901649147FD608124
:1011D000062E000C770B861797070CF095CF01961B
:1011E000E1E0F0E0EC0FFD1FE80FF91F5083ECCFBA
:1011F0000115110511F118012101401A510AC70109
:101200000E942E1C4C01E2E0F0E0EC0FFD1FE80F05
:10121000F91F8081882371F1D1018D921D01C15781
:10122000DE4F88819981CF58D1400196C157DE4F5A
:1012300099838883CF58D140DFCFC7010E942E1CED
:101240004C01E2E0F0E0EC0FFD1FE80FF91F808198
:10125000882371F0C157DE4F88819981CF58D140E2
:101260000196C157DE4F99838883CF58D140E5CF8F
:10127000412C512CB701C4010E9405214114510495
:1012800039F00115110521F0F801E40DF51D10826A
:10129000C457DE4F88819981AA81CC58D1400196EC
:1012A000A11DC457DE4F88839983AA83CC58D140AF
:1012B00081E090E0BFEF8B169B0611F080E090E09C
:1012C00091958195910997FD03C0680E791EE7CB32
:1012D0008F3FEFEF9E0719F46114710409F0C30109
:0A12E000CE56DE4FE2E10C945E21D1
:1012EA00A3EAB0E0EBE7F9E00C9442214C01590182
:1012FA00C756DF4F488359836A83C959D040212C86
:10130A00312C6E012BE8C20ED11C85E2782E260103
:10131A0030E8632ECE018D569F4FC456DF4F998316
:10132A008883CC59D0409C0140E8CF55DF4F2883B1
:10133A0039834A83C15AD040C756DF4F4881C959B9
:10134A00D040C656DF4F5881CA59D040C556DF4FE4
:10135A006881CB59D040FA01849167FD8081882346
:10136A0009F4C9C3CF57DF4F19821882C158D04038
:10137A008FEF9FEFCD57DF4F99838883C358D040B3
:10138A00CB57DF4F19821882C558D040A1E0B0E090
:10139A00AC0FBD1FC957DF4FB983A883C758D040C8
:1013AA00E0E8F0E0C757DF4FF983E883C958D04037
:1013BA00CA01A62FE12CF12CFC012491A7FD208162
:1013CA0021111BC0E114F10401F19701C4010E942B
:1013DA00F41EC756DF4F88819981AA81C959D04026
:1013EA008E0D9F1DA11DF7FCAA95C756DF4F888356
:1013FA009983AA83C959D04008C00196A11D2532F4
:10140A0009F3FFEFEF1AFF0AD7CFC756DF4F8881DC
:10141A009981AA81C959D040FC012491A7FD208154
:10142A00253209F056C39C014A2F2F5F3F4F4F4F79
:10143A00C256DF4F288339834A83CE59D040C756D4
:10144A00DF4F288339834A83C959D040C756DF4FB3
:10145A0088819981AA81C959D040FC012491A7FDAC
:10146A0020812B3241F4CF57DF4F28813981C1586F
:10147A00D04024600BC02C32CCF02D3259F5CF5716
:10148A00DF4F28813981C158D0402160CF57DF4FC3
:10149A0039832883C158D0400196A11DC756DF4F12
:1014AA0088839983AA83C959D040D0CF203241F486
:1014BA00CF57DF4F28813981C158D0402860E6CF05
:1014CA00233291F4CF57DF4F28813981C158D04058
:1014DA002061DCCF203341F4CF57DF4F2881398197
:1014EA00C158D0402260D2CF2A3299F50196A11D67
:1014FA00C756DF4F88839983AA83C959D040D5013B
:10150A00ED91FC911197CF0102968D939C93808166
:10151A009181CB57DF4F99838883C558D04097FF75
:10152A003EC0CF57DF4F28813981C158D040B1E042
:10153A002B27CF57DF4F39832883C158D040919545
:10154A0081959109CB57DF4F99838883C558D0403D
:10155A0026C0BC018A2F0E94001ECB57DF4F9983F9
:10156A008883C558D040C756DF4F288139814A81C0
:10157A00C959D040F901849147FD8081082E000C99
:10158A00990BC0970A9758F42F5F3F4F4F4FC75692
:10159A00DF4F288339834A83C959D040E4CFCF57D4
:1015AA00DF4F88819981C158D04080FF07C08D7F65
:1015BA00CF57DF4F99838883C158D040C756DF4F32
:1015CA0088819981AA81C959D040FC012491A7FD3B
:1015DA0020812E3209F058C0CD57DF4F1982188268
:1015EA00C358D0409C014A2F2F5F3F4F4F4FC756D9
:1015FA00DF4F288339834A83C959D040F90154916E
:10160A0047FD50815A32D1F40296A11DC756DF4FC9
:10161A0088839983AA83C959D040D501ED91FC9159
:10162A001197CF0102968D939C9380819181CD571A
:10163A00DF4F99838883C358D04026C0842FB901CD
:10164A000E94001ECD57DF4F99838883C358D0402C
:10165A00C756DF4F288139814A81C959D040F901DB
:10166A00849147FD8081082E000C990BC0970A9738
:10167A0058F42F5F3F4F4F4FC756DF4F28833983A8
:10168A004A83C959D040E4CFCE0187569F4F0E9462
:10169A00201D182FC756DF4F2881C959D040C6567A
:1016AA00DF4F8881CA59D040C556DF4F9881CB5940
:1016BA00D040E22FF82F849197FD8081082E000CEC
:1016CA00990B0E946C238936910509F45AC0B4F427
:1016DA008336910509F466C144F48532910509F40B
:1016EA00A1C18136910529F1B3C18436910509F466
:1016FA0048C0883691050CF42DC1AAC180379105DE
:10170A0009F4CBC04CF48E36910509F419C18F3611
:10171A00910509F47CC09CC18537910509F454C030
:10172A008837910509F496C08337910509F090C16D
:10173A0058C1612F70E0A501C6010E94E520892BDE
:10174A0009F4B7C1C756DF4F88819981AA81C9595F
:10175A00D0409C014A2F2F5F3F4F4F4FC756DF4F54
:10176A00288339834A83C959D040FC012491A7FDB3
:10177A002081A601BE016F577F4FC4010E94C12379
:10178A0095C1612F70E0950141E050E0C6010E94C9
:10179A000E15892B09F48DC1C756DF4F88819981AF
:1017AA00AA81C959D0400196A11DC756DF4F888327
:1017BA009983AA83C959D040A601BE016F577F4FAA
:1017CA00C4010E944F1472C1612F70E0950140E07C
:1017DA0050E0C6010E940E15892B09F46AC1C7564A
:1017EA00DF4F88819981AA81C959D0400196A11DEC
:1017FA00C756DF4F88839983AA83C959D040A60167
:10180A00BE016F577F4FC4010E94841B4FC1612FD5
:10181A0070E0950140E050E0C6010E940E15892B48
:10182A0009F447C1C756DF4F88819981AA81C959EE
:10183A00D0400196A11DC756DF4F88839983AA839A
:10184A00C959D040A601BE016F577F4FC4010E94FB
:10185A004F1A2CC1612F70E0950140E050E0C6019B
:10186A000E940E15892B09F424C1C756DF4F8881BF
:10187A009981AA81C959D0409C014A2F2F5F3F4FB5
:10188A004F4FC756DF4F288339834A83C959D040FF
:10189A00FC012491A7FD20814BC0950140E050E056
:1018AA0060EF70E0C6010E940E15892B09F401C190
:1018BA00C756DF4F88819981AA81C959D0400196BC
:1018CA00A11DC756DF4F88839983AA83C959D0407F
:1018DA0086E02DE731E040E0F901DE01AD56BF4F69
:1018EA00742F0E94D022D6012C9111963C91119707
:1018FA0012964C91129713965C91139714966C91C9
:10190A00149715967C91159716968C91169717969B
:10191A009C91A0E00E94F52251F400E010E0CF551E
:10192A00DF4F288139814A81C15AD040B9C028E79E
:10193A00A601BE016F577F4FC4010E941D11B6C098
:10194A00612F70E09501A1014E0D5F1DC6010E9435
:10195A00A418AFC0612F70E0A501C6010E94E5205E
:10196A00892B09F4A6C0C756DF4F88819981AA81BD
:10197A00C959D0409C014A2F2F5F3F4F4F4FC7563E
:10198A00DF4F288339834A83C959D040FC01249107
:10199A00A7FD2081A601BE016F577F4FC4010E9497
:1019AA00C12384C0103809F084C0C756DF4F88812C
:1019BA009981AA81C959D0400196A11DC756DF4F06
:1019CA0088839983AA83C959D040D501ED91FC91A6
:1019DA001197CF0102968D939C938081F6018083A3
:1019EA005BC0103809F065C0C756DF4F88819981FE
:1019FA00AA81C959D0400196A11DC756DF4F8883D5
:101A0A009983AA83C959D040D501ED91FC911197C8
:101A1A00CF0103968D939C9320813181428100E00E
:101A2A0010E03EC0103809F044C0C756DF4F888125
:101A3A009981AA81C959D0400196A11DC756DF4F85
:101A4A0088839983AA83C959D040F601708224C039
:101A5A00D6017C92C256DF4F288139814A81CE59FC
:101A6A00D040C756DF4F288339834A83C959D040AB
:101A7A00CF57DF4F19821882C158D040CB57DF4F5A
:101A8A0019821882C558D0408FEF9FEFCD57DF4F8C
:101A9A0099838883C358D04001E010E0462D920113
:101AAA00BE016F577F4FC4010E941F1B8E0D9F1DE1
:101ABA0011C0C756DF4F88819981AA81C959D04080
:101ACA000196A11DC756DF4F88839983AA83C959F6
:101ADA00D040C7017101E80EF91EE214F3044CF478
:101AEA008FE490E090932101809320018FEF9FEF84
:101AFA0003C0170121CCC101CD55DF4FE2E10C949F
:021B0A005E215A
:101B0C00ACE1B0E0ECE8FDE00C9442211B01482E66
:101B1C00598B488B3C8F2B8F0A8F253231051CF447
:101B2C002130310539F486E190E0909321018093C6
:101B3C002001A3C161157105810509F49EC1FB014A
:101B4C00149147FC1081112309F497C1842C3101A5
:101B5C00103239F0812F012E000C990B0997059743
:101B6C0048F4FFEF6F1A7F0A8F0AF301149187FC78
:101B7C001081EECF1D3259F42FEF621A720A820ACD
:101B8C00F301149187FC108131E03E870BC01B32AE
:101B9C0041F48FEF681A780A880AF301149187FCD4
:101BAC0010811E86103309F052C0E82C63019FEFA0
:101BBC00C91AD90AE90AF6011491E7FC10818B8D38
:101BCC009C8D8F7E892B09F044C0812F8F7D8835A9
:101BDC00A9F5E2E06E0E711C811CF301149187FCD7
:101BEC001081812F8062082E000C990B815691096F
:101BFC00212F012E000C330B3C8F2B8F4A9738F082
:101C0C008B8D9C8D0E94FB21892B41F049C18B8DC2
:101C1C009C8D0E9440238753803194F316014E2CE7
:101C2C0088899989892B09F02DC11982512C912C05
:101C3C001A821B821C821D821E8242C1EB8DFC8D7E
:101C4C00EF2B09F435C136018E2C01E00DC000E0FC
:101C5C0003C036018E2C01E02B8D3C8D232B21F4FF
:101C6C008AE090E09C8F8B8F9A8D992399F0EE856A
:101C7C00E1111FC0FFEFFA8B2FEF2B8B3FEF3C8B4B
:101C8C008FEF8D8B9FEF9E8BEFEFEF8BF88F2FE706
:101C9C00298F18C03FEF3A8B8FEF8B8B9FEF9C8B6C
:101CAC00EFEFED8BFFEFFE8B2FEF2F8B388F898FA4
:101CBC0009C01A8A1B8A1C8A1D8A1E8A1F8A188EC2
:101CCC0090E8998F1F861982512C912C1A821B82B5
:101CDC001C821D821E82EC8DEE0FEE0BE887212FED
:101CEC002062022E000C330B21563109812F012E5C
:101CFC00000C990B2A31310528F40E94402387539C
:101D0C008F8306C0C0970A9708F096C010531F83A4
:101D1C00FF818F2FFF0F990B2B8D3C8D8217930713
:101D2C000CF08AC03F85311163C0A980B52CC92C39
:101D3C00DA80EB80FC800D811E812B8D3C8D4885DB
:101D4C00542F642F742F842F942F0E94D01C590170
:101D5C006A017B018C019F81990F990B2F81392F7F
:101D6C00492F592F692F792F892F0E9452232F83A6
:101D7C0039874A875B876C877D87B82FA92F298184
:101D8C00352D492D5A816B817C818D819E81AF804F
:101D9C00B984CA84DB84EC84FD840B2F1A2F0E9437
:101DAC005B2309F070F48A8D882381F12A893B89A1
:101DBC004C895D896E897F89888D998D0E945B2302
:101DCC0028F5E2E2F0E0F0932101E0932001FA899A
:101DDC00FF832B8929873C893A878D898B879E893C
:101DEC009C87EF89ED87B88DA98DF1E0FF870EC038
:101DFC0029812F8359869A863A813B878B818C87E0
:101E0C009C819D87BD81AE81E1E0EF87FFEF6F1A6A
:101E1C007F0A8F0AF301149187FC108101E02F8156
:101E2C00298359849A843B853A838C858B839D8541
:101E3C009C83BD83AE8353CFEF85E11115C0FE8526
:101E4C00FF2391F02981352D492D5A816B817C819D
:101E5C008D819E810E946A222983532E942E5A834F
:101E6C006B837C838D839E8328893989232B41F155
:101E7C00002381F01301482C0DC0E889F989EF2B60
:101E8C0009F4D3CE1982512C912C1A821B821C82FC
:101E9C001D821E82E889F98920823182428210C01B
:101EAC00E82C630100E020E130E03C8F2B8F05C073
:101EBC0001E088E090E09C8F8B8F36018E2CD4CE85
:101ECC002981352D492D5A816B817C818D819E8193
:081EDC006C96E2E10C945E211A
:101EE400A2E1B0E0E8E7FFE00C9442215C017A8BC8
:101EF400698BFA011901048115816084718426813A
:101F040037813C872B870E94A020F10120813181F9
:101F1400820F931F91838083C301019701151105DB
:101F240009F48C013C01081719070CF43801CB841F
:101F3400DC84F1E0CF1AD10821E030E03A87298728
:101F4400E12CF12C18861F82812C912C412C512CD0
:101F54001E861D86F88AEF86E614F7040CF03EC14F
:101F6400C5010E942E1C8C018F3F3FEF930739F46B
:101F74001E141F040CF432C18FEF9FEF58C181145B
:101F84009104D1F48B32910511F08D97A9F4E114E9
:101F9400F10431F04E145F0419F0B501C80119C001
:101FA400F6010183F10180819181019691838083FF
:101FB40088248394912C05C12D853E85232BD1F44F
:101FC4000E321105B9F44114510431F0B5018EE219
:101FD40090E00E94052102C12EE2F6012183F10165
:101FE4008081918101969183808321E030E03E8756
:101FF4002D87E7C04114510451F58F819885892BB1
:1020040039F0C8010E946C2380379105A1F406C001
:10201400C8010E946C238536910569F4F601018399
:10202400F10180819181019691838083812C912C8F
:1020340049845A84C6C0C4010196E816F90639F4E5
:10204400C8010E946C238837910509F4DFC08F8191
:102054009885892B31F0C8010E94E721892B31F042
:10206400A8C0C801C0970A9708F4A3C0B501C80165
:102074000E940521E814F90409F0B0C026E0E2E268
:10208400F1E0CE010196DC0101900D922A95E1F771
:10209400F7013296F887EF83E615F7051CF080E028
:1020A40090E077C02B853C852E0D3F1D3A8729870C
:1020B400C12CD12C88248A94982C37016C0C7D1C5B
:1020C4002301C5010E942E1C8C01019609F45FC0F6
:1020D4008FEF8816980671F4C8010E946C238C0156
:1020E4008936910541F18E369105B9F5882483949A
:1020F400912C23C0C8010E946C23F401EE0FFF1F32
:10210400E80DF91D21E030E02C0F3D1FE20FF31F15
:102114002081318142812C0D3D1D411DD7FC4A9502
:10212400F901249147FD2081022E000C330B821704
:10213400930719F012C0812C912CE985FA8501933B
:10214400FA87E987FFEFCF1ADF0A23E0C216D1042A
:1021540009F0B3CF83E090E01CC08F819885861589
:102164009705C4F3EB85FC856E0E7F1EF1E04F1AD4
:1021740051084E145F040CF492CFF30182913F0195
:10218400B501082E000C990B0E940521EFCF8FEFAB
:102194009FEF1816190614F59701280F391F388B6D
:1021A4002F87F10120813181820F931F91838083D6
:1021B40015C0F6010183F10180819181019691831B
:1021C4008083FFEFEF1AFF0A29853A852F5F3F4F7F
:1021D4003A8729873FEFC31AD30ABCCEEB85FC8527
:1021E4008F859889E80FF91F1082EB85FC85BF0164
:1021F40080E840E050E00E94C423E989FA896083C2
:1022040071838283938380E090E011C0F601808122
:10221400803309F01CCF0183F10180819181019603
:102224009183808321E030E038872F83CACF629680
:06223400E2E10C945E21C2
:10223A00A4E1B0E0E3E2F1E10C94422198878F83B4
:10224A007A8369835C8B4B8B122FDB011296ED919B
:10225A00FC91139714962D913C9115973E832D83EB
:10226A00ED90FC90119716962D903C901797F7FDDC
:10227A0003C0E894E1F802C0E1E0F0E0C701807130
:10228A0099279A878987E4FE1FC0AB89BC892C915C
:10229A0011963C91119712964C91129713965C9154
:1022AA00139714966C91149715967C911597169618
:1022BA008C91169717969C91A0E00E94F52221F026
:1022CA008D819E81029702C08D819E81970128701F
:1022DA0033273C872B87E3FC0197AB89BC894C9059
:1022EA0011965C90119712966C90129713967C90A7
:1022FA00139714968C90149715969C90159716968A
:10230A00AC9016971796BC90A981BA811896CD9071
:10231A00DC901997B1E0CB1AD108D101AC0DBD1DE3
:10232A001C929C838B839F01281B390B3E872D8728
:10233A00C70182709927988B8F87812F012E000CF5
:10234A00990BDC01A154B109BA8BA98B32E0C316EF
:10235A00D10434F489859A85892B09F04CC073C05D
:10236A009201A301B401C501A0E00E94F52281F106
:10237A00B1E0CB1AD108C2018F7099278A30910532
:10238A0014F4C09602C0895A9F4FE989FA897A974C
:10239A0048F49C012062215631092A31310510F492
:1023AA000E944023F101EC0DFD1D80832B813C81AD
:1023BA00215031093C832B839201A301B401C50149
:1023CA0004E00E94262129013A014B015C01BECF9B
:1023DA008D859E85AB81BC818A0F9B1F18161906B5
:1023EA003CF21A161B060CF0B5CFEF85F889EF2BD5
:1023FA0009F0BECFAFCFAB89BC892C9111963C9125
:10240A00119712964C91129713965C911397149602
:10241A006C91149715967C91159716968C91169730
:10242A0017969C91A0E00E94F52269F0F101EC0D4B
:10243A00FD1D31971083B2E0CB1AD108F101EC0DE2
:10244A00FD1D80E38083EB85FC85EF2B41F0F1E0F5
:10245A00CF1AD108F101EC0DFD1D80E28083A9811C
:10246A00BA8118962D913C911997215031092C194E
:10247A003D09C20CD31CA60160E80D811E818F8123
:10248A0098850E94AE179C01EF81F8858081918121
:10249A0090FF09C0A981BA8112968D919C911397D8
:1024AA00821793070CF4C9016496E2E10C945E2149
:1024BA00CF93DF93CDB7DEB7EE970FB6F894DEBFB2
:1024CA000FBECDBF19AE1AAE1BAE1CAE84EF91E0A3
:1024DA009EAF8DAF84B1866084B90E94851E0E942A
:1024EA00902387E690E00E940C23789440E060E015
:1024FA008CE00E945A20809128018823E1F0CE01C5
:10250A00CD969F938F9304979F938F938DED90E031
:10251A00A0E0AF939F938F9380E091E0A0E8AF9300
:10252A009F938F930E947D20109228010FB6F894F2
:10253A00DEBF0FBECDBFCE0101960E94B81D69ADA8
:10254A007AAD8BAD9CAD20E030E040EF51E40E94C3
:10255A00A82318163CF08DAD9EAD8C32914024F420
:10256A0011E003C011E001C010E0112351F085B160
:10257A00846085B985B18D7F85B985B1816085B95A
:10258A0006C085B18B7F85B985B1826085B981E046
:10259A000E947A2280E80E947A22CE0101969F93B5
:1025AA008F9383EE90E0A0E0AF939F938F937E0189
:1025BA0081E1E80EF11CFF92EF920E942222C701EC
:1025CA000E94C32280EC0E947A220FB6F894DEBFE2
:1025DA000FBECDBF112369F1C9ACDAACEBACFCACD0
:1025EA0020E030E040E251E4C701B6010E94B62380
:1025FA000E947423CB016AE070E00E94BF219F937E
:10260A008F93C701B6010E9474237F936F938CEE58
:10261A0090E0A0E0AF939F938F93CE0185969F930E
:10262A008F930E9422220FB6F894DEBF0FBECDBF51
:10263A0030C0C9ACDAACEBACFCAC20E030E040E234
:10264A0051E4C701B6010E94B6230E9474232EAD3D
:10265A002F932DAD2F93CB016AE070E00E94BF212A
:10266A009F938F93C701B6010E9474237F936F9340
:10267A008CEF90E0A0E0AF939F938F93CE01859665
:10268A009F938F930E9422220FB6F894DEBF0FBE4B
:10269A00CDBFCE0185960E94C3229FEF24E38CE032
:0E26AA00915020408040E1F700C0000024CF96
:1026B800A8E0B0E0E2E6F3E10C9442214C0178870F
:1026C8006F83FA015901848195819A838983E08413
:1026D800F18426803780C4010E94A020F501208162
:1026E8003181820F931F9183808389819A81892BFD
:1026F80021F4F7013197FA83E9834AE0C42ED12CFB
:10270800612C712C00E010E0C70101979E838D8336
:1027180089819A81081719070CF097C0ED81FE810D
:102728000E171F070CF091C0C4010E942E1C7C01DB
:102738009FEFE916F90639F4101611060CF485C056
:102748008FEF9FEFA4C001151105B1F4EBE2EE166F
:10275800F10421F0FDE2EF16F10471F4F101E082D9
:10276800F501808191810196918380836624639429
:10277800712C01E010E0CCCFC101800F911F9C8328
:102788008B8306151705C1F538019FEF691A790A79
:10279800EAE0CE16D10441F4F0E3EF16F10451F566
:1027A80028E0C22ED12C28C088E0C816D10411F523
:1027B800C701806288379105E9F4C4010E942E1C84
:1027C8002C01B4010E940521C2010E94E721892B36
:1027D80071F0EB81FC81E0828301F50180819181B8
:1027E80001969183808390E1C92ED12C91CFB401B9
:1027F800C20111C0612C712CC701C0970A9770F0F3
:10280800F0E1CF16D10429F4C7010E94E721892BF2
:1028180081F4B401C7010E94052117C088E0C816D9
:10282800D10439F498E3E916F1041CF08AE0C82EC3
:10283800D12CEB81FC81E0820F5F1F4FF501808175
:10284800918101969183808363CFF101E00FF11F9D
:102858001082B10180E8FAE0CF16D10439F42AE0F9
:1028680030E040E050E00E949C2305C0960140E023
:1028780050E00E94A223EF81F885208331834283B0
:102888005383648375838683978380E090E02896DA
:06289800E2E10C945E2158
:10289E00ADE0B0E0E5E5F4E10C9442219A8789873A
:1028AE007C836B83FA01DB011296CD90DC9013973B
:1028BE0014968D919C9115979E838D83ED90FC902F
:1028CE001197FA82E98216960D90BC91A02DB887C9
:1028DE00AF832080318042805380648075808680F3
:1028EE0097808101B42DF52DE62D7B868C869D86F5
:1028FE009101A201B301C401A0E00E94F5224CF4A3
:10290E000E946A228901B42FF52FE62F7B878C87D0
:10291E009D87D7FC04C0E894E1F8FA82E982910120
:10292E00A201B301C401A0E0ED80FE800E94F52259
:10293E001CF0898182FF04C081E0E81AF10805C00D
:10294E0083FF03C091E0E91AF108CE0101965C0104
:10295E008AE0C82ED12C2B2F3F2F4E2F5B856C85F6
:10296E007D858B819C810E946E16FC019101A201D6
:10297E00B301C401A0E00E94F5221CF0898182FF00
:10298E0012C031970F8118850E0F1F1F9101A201E2
:10299E00B301C401A0E00E94F52214F08BE201C045
:1029AE008DE2D80108C083FF07C03197AF81B8858B
:1029BE00AE0FBF1F80E28C93E980FA80AB81BC81A1
:1029CE0018962D913C911997215031092E1B3F0BD2
:1029DE008F819885E80FF91FAF0160E80D811E8188
:1029EE0089859A850E94AE179C01A985BA858D911D
:1029FE009C9190FF07C0EB81FC81828193818217AD
:0E2A0E0093070CF4C9012D96E2E10C945E21B1
:102A1C000F931F93CF93DF93FC01D9016838710595
:102A2C0031F194F461387105B1F12CF46038710511
:102A3C0009F478C09FC06238710509F459C0643834
:102A4C00710509F46FC096C0603A710509F448C06D
:102A5C002CF46039710509F44BC08CC0603C7105D5
:102A6C0009F476C0603F710509F472C083C0CD9142
:102A7C00DC911197CE0102968D939C93452B39F0E6
:102A8C009881892F880F880B908381835BC0888104
:102A9C008083118268C0CD91DC911197CE01049690
:102AAC008D939C93452B99F088819981AA81BB8148
:102ABC00AC01BD01770F440B542FBA018083918375
:102ACC00A283B383448345834683478328C008810C
:102ADC0019812A813B81008311832283338345C072
:102AEC00CD91DC911197CE0102968D939C9323C0CE
:102AFC00CD91DC911197CE0108968D939C937881A2
:102B0C0069815A814B813C812D819E818F8170839B
:102B1C00618352834383348325839683878381E047
:102B2C0090E02AC0CD91DC911197CE0102968D9345
:102B3C009C93452BA1F099812881892F880F880BB4
:102B4C002083918382838383848385838683E6CFEA
:102B5C00CD91DC911197CE0102968D939C930881B7
:102B6C0019810083118312821382148215821682BA
:102B7C001782D5CF80E090E0DF91CF911F910F911C
:022B8C000895AA
:102B8E00A4E0B0E0EDECF5E10C9442217C017C83F5
:102B9E006B83FA01590144805580C084D1846680CC
:102BAE0077800E94A020F50120813181820F931F32
:102BBE00918380834114510421F42601F1E04F1AD0
:102BCE005108130100E010E0C60101979A83898332
:102BDE00041515050CF042C089819A810817190752
:102BEE00ECF5C7010E942E1C6C019FEFC916D90689
:102BFE0031F41016110694F18FEF9FEF64C0C601E9
:102C0E000E94E721892BF1F401301105B1F4C601C0
:102C1E000E946C238837910581F4F3018081803303
:102C2E0061F4C7010E942E1C4C01B7010E940521C0
:102C3E00C4010E94E721892B29F4B701C6010E9425
:102C4E0005210CC0F101C1921F010F5F1F4FF5014D
:102C5E0080819181019691838083BACFD301A00F99
:102C6E00B11F1C92033011053CF4EB81FC811082E4
:102C7E0011821282138221C0F301329600E010E01D
:102C8E009801819190ED980F9A3018F0806299EA30
:102C9E00980F84E0000F111F221F331F8A95D1F762
:102CAE00090F111D211D311DAE17BF0751F7EB8105
:102CBE00FC81008311832283338314821582168252
:0E2CCE00178280E090E02496E2E10C945E21F3
:102CDC00A2E1B0E0E4E7F6E10C944221FC010A8B9E
:102CEC001B832C83732E642E552E462E7D83CC860F
:102CFC00D886BF82AE82868197819B878A87D501D1
:102D0C004D915C91228133818085918501971C01C5
:102D1C0037FF02C021E030E0EA85FB85E80FF91FA0
:102D2C0010824701E1E0F0E0FA83E983C9018E19D2
:102D3C009F099E878D87DA01A270BB27B88BAF875E
:102D4C00B885BB0FBB0BB98B1214130474F0A9819B
:102D5C00BA81AB2B09F05CC0AE81BF818D919C9187
:102D6C0011978F7E8D939C9353C02A893B814C8104
:102D7C00572D662D752D842D9D81A0E00E94F52286
:102D8C00B1F1E1E02E1A3108FC85F987AF2EB88439
:102D9C00C988DC2CEC2CFC2C0C2D1C2D2A893B819D
:102DAC004C81572D662D752D842D9D810E94B52249
:102DBC00C90129839A83EA85FB85E20DF31D805DA9
:102DCC00808381E0881A91082A893B814C81572D98
:102DDC00662D752D842D9D810E94B7222A8B3B83F5
:102DEC004C83752E662E572E482E9D83ADCF8D8528
:102DFC009E85880D991D181619061CF218141904B5
:102E0C000CF0A5CFEF85F889EF2B09F0BACF9FCF47
:0A2E1C00C1016296E2E10C945E2110
:102E2600CF93DF93FC01D9016838710521F18CF449
:102E36006138710561F12CF46038710509F476C0CA
:102E460085C062387105B1F16438710509F46EC048
:102E56007DC0603A710509F469C024F460397105D2
:102E660049F174C0603C710509F460C0603F7105AA
:102E760009F45CC06BC0CD91DC911197CE0102962E
:102E86008D939C93A881B98180818C935CC0CD91F0
:102E9600DC911197CE0102968D939C93A881B981FE
:102EA60040815181628173814D935D936D937C93D3
:102EB600139749C0CD91DC911197CE0102968D935F
:102EC6009C93452B99F070816181528143813481B5
:102ED600258196818781E881F98170836183528398
:102EE600438334832583968387832DC0A881B98144
:102EF60070816181528143813481258196818781E8
:102F06007C9311966C93119712965C931297139675
:102F16004C93139714963C93149715962C931597E8
:102F260016969C93169717968C930DC0CD91DC91AF
:102F36001197CE0102968D939C93A881B9818081C9
:102F460091818D939C9381E090E002C080E090E0B7
:062F5600DF91CF91089508
:102F5C002F923F924F926F927F928F92AF92BF922D
:102F6C00CF92DF92EF92FF920F931F93CF93DF9349
:102F7C00CDB7DEB766970FB6F894DEBF0FBECDBFE8
:102F8C005C013A01862E6901C701817099279C8BDF
:102F9C008B8BE0FC1DC020173107D4F47801EC18A2
:102FAC00FD08FE8AED8AA70191E1E916F10410F003
:102FBC0040E150E060E270E0CE0101969A8B898B83
:102FCC000E94372389899A891C0120E8422E0BC064
:102FDC009601682DA301C5010E94F41EC016D106EE
:102FEC00ECF2C60125C090E1E916F10458F020E19D
:102FFC0030E0642DA101C5010E94F41E80E1E81AA5
:10300C00F108F1CF2D893E892F70332789899A8950
:10301C00AC0160E8C5010E94F41E8B899C89892B48
:10302C0031F49601682DA301C5010E94F41EC8015C
:10303C0066960FB6F894DEBF0FBECDBFDF91CF9171
:10304C001F910F91FF90EF90DF90CF90BF90AF90BA
:0E305C008F907F906F904F903F902F9008952F
:10306A0010C00E94892358F00E94822340F029F45C
:10307A005F3F29F00C94962351110C947C230C94F5
:10308A00BE230E94C32068F39923B1F3552391F319
:10309A00951B550BBB27AA2762177307840738F0BD
:1030AA009F5F5F4F220F331F441FAA1FA9F335D01A
:1030BA000E2E3AF0E0E832D091505040E695001CCE
:1030CA00CAF72BD0FE2F29D0660F771F881FBB1F88
:1030DA00261737074807AB07B0E809F0BB0B802D66
:1030EA00BF01FF2793585F4F3AF09E3F510578F092
:1030FA000C9496230C947C235F3FE4F3983ED4F31C
:10310A00869577956795B795F7959F5FC9F7880F65
:10311A00911D9695879597F90895E1E0660F771FB7
:10312A00881FBB1F621773078407BA0720F0621B48
:0E313A00730B840BBA0BEE1F88F7E095089517
:10314800CF93DF93DC01F90164387105D9F164F498
:103158006138710521F16238710509F440C06038A1
:10316800710509F054C02EC060397105C1F184F4AD
:103178006838710509F04BC0C081D181CE01029633
:1031880091838083E881F981ED93FC9340833CC06F
:10319800603A7105B9F0603C7105A1F038C0C08192
:1031A800D181CE01029691838083E881F981ED93E4
:1031B800FC93052E000C660B770B408351836283CA
:1031C800738322C0C081D181CE010296918380830E
:1031D800E881F981ED93FC935183408315C0C08148
:1031E800D181CE01029691838083E881F981ED93A4
:1031F800FC9351834083852F880F880B82838383B8
:10320800848385838683878381E090E002C080E0A1
:0832180090E0DF91CF910895D1
:10322000A0E0B0E0E6E1F9E10C9444214C01EB01AF
:10323000FA016901A480B58060847184E680F7801A
:103240000E94A020F60120813181820F931F91837B
:103250008083A114B10421F45301F1E0AF1AB10845
:10326000270100E010E021E0621A71080A151B0531
:1032700024F5061517050CF5C4010E942E1C8F3F7E
:10328000EFEF9E0721F410161106BCF02DC09C0133
:10329000205331092830310520F0B4010E94052166
:1032A0000CC0F20181932F010F5F1F4FF601808147
:1032B0009181019691838083D9CFF701E00FF11FAF
:1032C0001082B70180E828E030E040E050E00E9442
:1032D000A223288339834A835B836C837D838E8317
:1032E0009F8380E090E002C08FEF9FEFCDB7DEB705
:0632F000E0E10C946021F6
:1032F6000FC00E94822338F00E94892320F0952374
:1033060011F00C9496230C94BE2311240C947C2368
:103316000E94C32070F3959FC1F3950F50E0551F8F
:10332600629FF001729FBB27F00DB11D639FAA2714
:10333600F00DB11DAA1F649F6627B00DA11D661F63
:10334600829F2227B00DA11D621F739FB00DA11D84
:10335600621F839FA00D611D221F749F3327A00D3E
:10336600611D231F849F600D211D822F762F6A2FDA
:1033760011249F5750409AF0F1F088234AF0EE0F3F
:10338600FF1FBB1F661F771F881F91505040A9F76C
:103396009E3F510580F00C9496230C947C235F3F4E
:1033A600E4F3983ED4F3869577956795B795F795A8
:1033B600E7959F5FC1F7FE2B880F911D9695879520
:0433C60097F90895D6
:1033CA00A0E0B0E0EBEEF9E10C9448215C01FB01CE
:1033DA004A01C480D58000851185E680F7800E9465
:1033EA00A020F40120813181820F931F9183808371
:1033FA00C114D10421F46801F1E0CF1AD108C0E068
:10340A00D0E001501109CC15DD05BCF5C017D10774
:10341A00A4F5C5010E942E1C8F3F2FEF920721F4BD
:10342A001C161D0654F12FC0209789F48B32910582
:10343A0019F08D32910559F4F7018083F4018081E6
:10344A009181019691838083C1E0D0E0DCCF9C0119
:10345A00205331092A30310520F0B5010E94052197
:10346A000CC0F701EC0FFD1F80832196F4018081C7
:10347A009181019691838083C6CFCE0DDF1D18827C
:10348A0080E090E002C08FEF9FEFCDB7DEB7ECE0AF
:04349A000C94642109
:10349E00A2E0B0E0E5E5FAE10C9442211C014B01FB
:1034AE00FA01DB0112962D913C91139714964D90D3
:1034BE005C9015978D919C9111979A83898316969E
:1034CE006D907C90179737FD03C08D7F9A8389830B
:1034DE0000811181228133814481558166817781FA
:1034EE00FE0131965F0188E0C82ED12C7201C40115
:1034FE000E946E16298124FF06C00197F301E80F82
:10350E00F91F20E32083298123FF06C00197F301D1
:10351E00E80FF91F20E22083E980FA80D401189683
:10352E002D913C91199721503109281B390B860D8D
:10353E00971DAC0160E88201C1010E94AE179C018B
:10354E00F1018081918190FF08C0D40112968D9176
:10355E009C911397821793070CF4C9012296E2E10E
:04356E000C945E213A
:10357200A0E0B0E0EFEBFAE10C9446216C01EB0124
:103582005A017901452B49F00E94A020F7012081C0
:103592003181820F931F918380836C807D804801EB
:1035A200C0E0D0E06114710449F5C6010E942E1CEE
:1035B2008F3FFFEF9F0731F4209789F10115110525
:1035C20009F527C0A114B10449F08032910551F1E7
:1035D2009C01295031092530310520F101151105D1
:1035E20011F0F40180832196F70180819181019687
:1035F20091838083FFEF8F1A9F0AD4CFC615D70518
:10360200A4F2DCCFA114B10421F0F801EC0FFD1FEC
:10361200108281E090E0CD2B61F480E00AC08FEF50
:103622009FEF07C0B6010E9405210115110589F31C
:0C363200ECCFCDB7DEB7EEE00C946221C7
:10363E002F923F924F926F927F928F92AF92BF9244
:10364E00CF92DF92EF92FF920F931F93CF93DF9360
:10365E00CDB7DEB727970FB6F894DEBF0FBECDBF3E
:10366E006C017B013901842E980186E7282E81E0BA
:10367E00382E80E0482E87E0F101AE014F5F5F4F9C
:10368E00DA01742D0E94D022F70102811381A480E9
:10369E00B580E080F18061147104810419F43A015F
:1036AE00F0E88F2E2115310529F4882DB3010E94E3
:1036BE00A9219C0117FD04C00217130708F49801F5
:1036CE008501682DA301C6010E94AE1727960FB67D
:1036DE00F894DEBF0FBECDBFDF91CF911F910F913A
:1036EE00FF90EF90DF90CF90BF90AF908F907F9034
:0A36FE006F904F903F902F900895B9
:10370800A2E0B0E0EAE8FBE10C9442213C014B0165
:10371800FA01DB0112962D913C91139714964D9066
:103728005C9015978D919C9111979A838983169631
:103738002D903C90179737FD03C08D7F9A8389831E
:10374800008111812281338144815581668177818D
:10375800FE0131965F018AE0C82ED12C7201C401A6
:103768000E946E16E980FA80D40118962D913C913A
:10377800199721503109281B390B820D931DAC0173
:1037880060E88201C3010E94AE179C01F3018081A9
:10379800918190FF08C0D40112968D919C91139746
:1037A800821793070CF4C9012296E2E10C945E217A
:1037B8006F927F928F92EF92FF920F931F93CF9306
:1037C800DF93CDB7DEB761970FB6F894DEBF0FBEB3
:1037D800CDBFFE01319651E1DF011D925A95E9F7FF
:1037E800A2E0B1E0BA83A9839C838B8377FF09C0E9
:1037F8008FE490E090932101809320018FEF9FEF59
:1038080019C03901842E7C01615071097F836E8350
:103818009801682DA301CF010E94912148855985FF
:103828002E813F814217530708F49A01F701E20FEE
:10383800F31F108261960FB6F894DEBF0FBECDBF9E
:10384800DF91CF911F910F91FF90EF908F907F9014
:043858006F900895D0
:10385C00CF93DF93DC011B968D919C911C97009765
:10386C00B9F001971C969C938E931B97FD01E80F62
:10387C00F91F818517962D913C9118972F5F3F4F1B
:10388C0018963C932E931797082E000C990B2EC06C
:10389C008D919C91119790FF16C012962D913D9190
:1038AC004C911497F901849147FD8081082E000CEE
:1038BC00990B0097C9F02F5F3F4F4F4F12962D93E6
:1038CC003D934C930FC01F96ED91FC915097309700
:1038DC0059F0ED01CD0109952F8138852F5F3F4FB0
:1038EC0038872F83992702C08FEF9FEFDF91CF91FD
:0238FC0008952D
:1038FE0088249924F401E401B0E49F93AA279A1531
:10390E008B049C04ED05FE05CF05D007A10798F4A6
:10391E00AD2FDC2FCF2FFE2FE92D982C892E982F2F
:10392E00872F762F652F542F432F322F2227B850F3
:10393E0031F7BF9127C01B2EBF91BB27220F331F1C
:10394E00441F551F661F771F881F991F881C991CBF
:10395E00EE1FFF1FCC1FDD1FAA1FBB1F8A149B0467
:10396E00EC05FD05CE05DF05A007B10748F08A1866
:10397E009B08EC09FD09CE09DF09A00BB10B2160F4
:10398E001A94E1F62EF49401AF01BE01CD01000CA4
:02399E0008958A
:1039A000DF93CF931F930F939A9DF02D219FF00DDE
:1039B0008B9DF00D8A9DE02DF10D039FF00D029F70
:1039C000E00DF11D4E9DE00DF11D5E9DF00D4F9D32
:1039D000F00D7F936F93BF92AF925F934F93D5019A
:1039E0000E9498228B01AC01D7010E949822EB0122
:1039F000E80FF91FD6010E9449232F913F91D6016C
:103A00000E949822C60FD71FE81FF91FAF91BF91E0
:103A10000E9449232F913F910E949822C60FD71FE1
:103A2000E81FF91FD6010E949822E60FF71F9801A0
:103A3000BE01CF0111240F911F91CF91DF91089505
:103A4000CF92DF92EF92DC0190E0292F30E0220F3D
:103A5000331F6901032E000CEE086E2DA601485A93
:103A60005E4F6F4F6A01E62EFA018491E7FC808178
:103A700081110DC02F5F3F4F032E000C440B285ABD
:103A80003E4F4F4FF901849147FD808124C0CD9076
:103A9000DD90EC901297F6014491E7FC408184138D
:103AA00015C02F5F3F4F032E000C440B285A3E4F8A
:103AB0004F4FF901949147FD90815FEFC51AD50AE8
:103AC000E50ACD92DD92EC92129701C09F5F9B3088
:0E3AD00008F4BBCF892FEF90DF90CF900895C0
:103ADE000F931F93CF93DF93DB012D913C911197A1
:103AEE0030FF25C017964D915C91189715962D9124
:103AFE003C9116974217530778F41296ED91FC916C
:103B0E001397808312962D913C9113972F5F3F4F01
:103B1E0013963C932E93129717962D913C911897CE
:103B2E002F5F3F4F18963C932E93179715C01D96F7
:103B3E00ED91FC911E97309719F48FEF9FEF0CC00B
:103B4E008B01EC010995892BC1F7F80187819085CE
:103B5E00019690878783CE01DF91CF911F910F91B0
:023B6E000895B8
:103B7000FF920F931F93CF93DF93C82FD92F0E94EB
:103B8000642380ED0E942D2380E00E942D230E945B
:103B9000B2230E94642381ED0E942D2381E00E94C4
:103BA000A7220E940123F82E81E00E94A7220E94F2
:103BB0000123082F80E00E94A7220E940123182FD2
:103BC0000E94B2231F92FF921F920F931F921F9386
:103BD0008EEC90E0A0E0AF939F938F93DF93CF9311
:103BE0000E9435228DB79EB70B960FB6F8949EBFF4
:103BF0000FBE8DBFDF91CF911F910F91FF90089560
:103C0000CF939B01482FF901849147FD8081803239
:103C1000C9F1682F082E000C770B695071096530C7
:103C2000710580F18B3249F5A0E0B0E02F5F3F4F86
:103C30004F4F02C0A0E0B0E080E090E0CAE0F901A0
:103C4000649147FD6081062E000C770B605371096B
:103C50006A30710560F4C89FF001C99FF00D11240E
:103C60002F5F3F4F4F4FCF01861B970BE8CFAB2BFA
:103C700069F491958195910909C08D32D9F6A1E039
:103C8000B0E0D4CF2F5F3F4F4F4FBDCFCF910895BE
:103C9000E89409C097FB3EF49095809570956195E6
:103CA0007F4F8F4F9F4F9923A9F0F92F96E9BB279C
:103CB0009395F695879577956795B795F111F8CF18
:103CC000FAF4BB0F11F460FF1BC06F5F7F4F8F4F83
:103CD0009F4F16C0882311F096E911C0772321F079
:103CE0009EE8872F762F05C0662371F096E8862F11
:103CF00070E060E02AF09A95660F771F881FDAF768
:0A3D0000880F9695879597F90895AE
:103D0A008AB18C638AB984B1896084B92FEF89EF4B
:103D1A0090E0215080409040E1F700C0000080E32D
:103D2A000E94BB1F8FE19EE40197F1F700C00000DB
:103D3A0080E30E94BB1F8FE891E00197F1F700C072
:103D4A00000080E30E94BB1F8FE891E00197F1F722
:103D5A0000C0000080E20E94BB1F88E20E947A2213
:103D6A008CE00E947A2286E00E947A2281E00E94F8
:043D7A007A2208950C
:103D7E00CF93DF93DC01FA0161387105A9F0633846
:103D8E00710521F06038710519F50EC0C081D18121
:103D9E00CE010296918380838D919D910D90BC9161
:103DAE00A02DE881F9810DC0C081D181CE0102968E
:103DBE0091838083E881F9818D919D910D90BC91C5
:103DCE00A02D80839183A283B38381E090E002C013
:0A3DDE0080E090E0DF91CF9108959E
:103DE8006F927F928F92CF92DF92EF920F931F93F1
:103DF800CF93DF938C016A01E62EE9013A01862E02
:103E0800620E731E811C37FD8A94C614D704E80419
:103E180079F0F6018491E7FC8081B801082E000C46
:103E2800990B0E946F1D8FEFC81AD80AE80AEDCFC8
:103E3800CE01DF91CF911F910F91EF90DF90CF903E
:083E48008F907F906F900895A8
:103E5000CF93DF93EB01488129813A81E42FF22F40
:103E6000249137FD2081203259F0022E000C330BB3
:103E7000295031092530310518F080E090E019C053
:103E80000E94A020288139814A812F5F3F4F4F4FE8
:103E9000288339834A83F901249147FD2081203208
:103EA00089F3022E000C330B2950310925303105DE
:083EB00048F3DF91CF91089562
:103EB8001F920F920FB60F9211248F939F93EF9337
:103EC800FF938091C6008A3021F0909129019F319B
:103ED80060F0E0912901F0E0E050FF4F108210926D
:103EE800290181E0809328010AC0E091290191E02D
:103EF8009E0F90932901F0E0E050FF4F8083FF91DF
:103F0800EF919F918F910F900FBE0F901F90189572
:103F18000E94CB2088F09F5798F0B92F9927B75166
:103F2800B0F0E1F0660F771F881F991F1AF0BA9555
:103F3800C9F714C0B13091F00E947B23B1E0089515
:103F48000C947B23672F782F8827B85F39F0B93F07
:103F5800CCF3869577956795B395D9F73EF4909508
:0E3F68008095709561957F4F8F4F9F4F089504
:103F7600EBB1982F9071692F70E0660F771F982F1D
:103F86009072492F50E055954795982F9074292F98
:103F960030E0359527953595279535952795807881
:103FA60090E095958795959587959595879595959F
:103FB6008795959587959E2F937C692B462B242B69
:0A3FC600822B8BB90E944822089557
:103FD0000F931F93CF93DF93EB01BA01FA01068190
:103FE0001781A9010E94E5198F3FFFEF9F0791F00C
:103FF000B80180E82AE030E040E050E00E949C23D5
:10400000288339834A835B836C837D838E839F837C
:0E40100080E090E0DF91CF911F910F91089515
:10401E000F931F93CF93DF93EB01BA01FA01068141
:10402E001781A9010E94E5198F3FFFEF9F0791F0BD
:10403E00B80180E82AE030E040E050E00E94A22380
:10404E00288339834A835B836C837D838E839F832E
:0E405E0080E090E0DF91CF911F910F910895C7
:10406C00990F0008550FAA0BE0E8FEEF161617067D
:10407C00E807F907C0F012161306E407F50798F0E5
:10408C00621B730B840B950B39F40A2661F0232BFE
:10409C00242B252B21F408950A2609F4A140A6957A
:0840AC008FEF811D811D0895B5
:1040B4001F93CF93DF93C82FD62F142F0E9464230E
:1040C40080ED0E942D2380E00E942D23812F0E94E9
:1040D4000F220E942D238D2F0E940F220E942D2338
:1040E4008C2F0E940F220E942D230E94B223DF9165
:0640F400CF911F91089519
:1040FA00A1E1B0E0E3E8F0E20C945221CE0101968E
:10410A0021E1FC0111922A95E9F722E031E03A8394
:10411A0029832E893F89488D2B833C834D839E01B9
:10412A00245E3F4F498D5A8D6B8D0E94792161968D
:06413A00E2E00C946E218E
:104140000F931F93CF93DF938C01C0E0D0E0C801A1
:104150000E942E1C8F3F2FEF920779F0803291053D
:1041600051F09C01295031092530310520F0B8016A
:104170000E94052102C02196EACFCE01DF91CF91A6
:064180001F910F9108954C
:1041860057FD9058440F551F59F05F3F71F0479502
:10419600880F97FB991F61F09F3F79F087950895E7
:1041A600121613061406551FF2CF4695F1DF08C006
:1041B600161617061806991FF1CF86957105610523
:0441C60008940895BC
:1041CA00FA0160387105CCF0623871051CF0633869
:1041DA00710599F4A081B1819D012C5F3F4F318314
:1041EA0020834D915D916D917C91FC0140835183B7
:1041FA006283738381E090E0089580E090E00895FF
:10420A00FB018F3F2FEF9207B9F0238534852230C7
:10421A00310594F4A9014F5F5F4F54874387DB014F
:10422A00A20FB31F19968C9327813085215031092B
:0E423A0030872783992708958FEF9FEF08950F
:1042480097FB10F8169400080F93083098F0085060
:10425800232F342F452F562F672F782F892F902DF6
:10426800F4CF0594979587957795679557954795D2
:0C427800379527950A95AAF70F91089535
:104284002F923F924F925F926F927F928F929F9262
:10429400AF92BF92CF92DF92EF92FF920F931F9350
:1042A400CF93DF93CDB7DEB7CA1BDB0B0FB6F89401
:0842B400DEBF0FBECDBF09946F
:1042BC002A88398848885F846E847D848C849B84AA
:1042CC00AA84B984C884DF80EE80FD800C811B81B8
:1042DC00AA81B981CE0FD11D0FB6F894DEBF0FBEE7
:0642EC00CDBFED010895B5
:1042F200A2E0B0E0EFE7F1E20C9450218C013A83A6
:1043020029839E012F5F3F4F0E942805F8012081DB
:1043120024FF02C08FEF9FEF2296E4E00C946C2101
:10432200A2E0B0E0E7E9F1E20C9450218C013A837B
:1043320029839E012F5F3F4F0E947509F80120815A
:1043420024FF02C08FEF9FEF2296E4E00C946C21D1
:10435200CF92DF92EF926B01E82EA82FCB01FC01E6
:104362002491A7FD2081222319F00196A11DF7CFE8
:0C4372008C199D09EF90DF90CF9008950A
:10437E0097FB072E16F4009407D077FD09D00E9404
:10438E00D32107FC05D03EF4909581959F4F08955B
:08439E00709561957F4F0895B1
:1043A600AA1BBB1B51E107C0AA1FBB1FA617B70755
:1043B60010F0A61BB70B881F991F5A95A9F7809571
:0843C6009095BC01CD010895A2
:1043CE009C01205331092A30310558F08062815604
:1043DE00910931E020E0069708F030E0832F922F0C
:0843EE00089581E090E00895BC
:1043F6009C012062215631092A31310550F09C0179
:104406002053310981E090E02A30310520F080E028
:08441600089581E090E0089593
:10441E009DEC899F912D112496959695969520E168
:10442E00929FA0011124990F292F220F220F920F74
:06443E00891B842B089588
:10444400A0E0B0E0E8E2F2E20C9452219E01265F83
:104454003F4F4F81588569858D819E810E94DD2261
:06446400E2E00C946E2161
:10446A00A0E0B0E0EBE3F2E20C9452219E01265F59
:10447A003F4F4F81588569858D819E810E94DD223B
:06448A00E2E00C946E213B
:1044900085B1886085B985E08A95F1F7000085B11E
:1044A000877F85B98FE39FE10197F1F700C0000096
:0244B00008956D
:1044B200092E0394000C11F4882352F0BB0F40F430
:1044C200BF2B11F460FF04C06F5F7F4F8F4F9F4F70
:0244D20008954B
:1044D400609570958095909530954095509521956F
:1044E4003F4F4F4F5F4F6F4F7F4F8F4F9F4F0895F9
:1044F400CF93C82F85B18E7F85B98C2F0E94BB1FA7
:0E4504008C2F8295807F0E94BB1FCF9108955F
:10451200CF93C82F85B1816085B98C2F0E94BB1FB4
:0E4522008C2F8295807F0E94BB1FCF91089541
:10453000A29FB001B39FC001A39F700D811D1124E4
:0E454000911DB29F700D811D1124911D0895D3
:10454E0020E4829FC001112484688093BC00809176
:0C455E00BC008823E4F78091BB000895A6
:10456A00689401C0E8948F929F92CF93DF930E9440
:0C457A007F1CDF91CF919F908F900895DF
:10458600CF93DF93EC0103C021960E948922888194
:0A4596008111FACFDF91CF91089553
:1045A000992777FD05C005900D920197E1F70895D1
:0A45B00001900D920197E1F70895C4
:1045BA000F931F9389019A01462F6FEF7FE70E949D
:0845CA00DC1B1F910F91089505
:1045D20057FD05C0659175918591959108956191F9
:0845E2007191819191910895FE
:1045EA000024A7FD00942A173005400550056005F0
:0845FA0070058005900508958D
:10460200982F92959F70990F292F220F220F920FA8
:064612008F70890F08956E
:104618009093C5008093C40080E98093C10086E030
:064628008093C20008951A
:10462E00EC010E94CC230E94CB23CE010E94CD230D
:06463E00CE010E94C92319
:104644000E949822A59F900DB49F900DA49F800D69
:06465400911D11240895E0
:10465A008093BB0084E88093BC008091BC008823CF
:04466A00E4F70895D4
:10466E00FC01480F591FE417F50711F06193FBCFBA
:02467E0008959D
:104680009C01215631092A31310510F48F75992783
:0246900008958B
:104692000E949822460F571FC81FD91F08F431964F
:0246A200089579
:1046A4002A0D3B1D4C1D5D1D6E1D7F1D801F911F1E
:0246B400089567
:1046B6002A153B054C055D056E057F0580079107AC
:0246C600089555
:1046C80084EA8093BC008091BC008823E4F70895B5
:1046D8009C01215431092A31310508F4806208957A
:0E46E8000E948C1F6894B1110C947C230895DD
:0E46F600E894BB2766277727CB0197F9089534
:0E47040000240A9416161706180609060895D2
:0E47120000240A9412161306140605060895D4
:0C4720001092B90087E48093B80008955F
:0C472C0097F99F6780E870E060E0089556
:0C4738000F9301E00E94860D0F91089580
:0C4744000F9300E00E94860D0F91089575
:0A4750000E94362008F48FEF089550
:0A475A000E94362008F481E0089563
:0847640084E98093BC00089574
:08476C000E947B190C945922F4
:084774000E9435180C94592233
:06477C009FEF80EC0895A0
:0647820080E090E00895C4
:064788000E94C20008952A
:04478E000C94000087
:044792000E9465001C
:02479600089584
:02479800089582
:02479A00089580
:06479C006E010072010035
:00000001FF
