:100000000C9434000C94A4010C94A4010C94A4014D
:100010000C94A4010C94A4010C94A4010C94A401CC
:100020000C94A4010C94A4010C94A4010C94A401BC
:100030000C94A4010C94A4010C94A4010C94A401AC
:100040000C94A4010C94A4010C94A4010C94A4019C
:100050000C94A4010C94A4010C94A4010C94A4018C
:100060000C94A4010C94A40111241FBECFEFD8E07E
:10007000DEBFCDBF0E94BA000C948B01F894FFCF75
:100080000D0A3D3D3D3D3D3D3D3D3D3D3D3D3D3D03
:100090003D3D3D3D3D3D3D3D3D3D3D3D3D3D3D3D90
:1000A0003D3D000D0A57415245484F5553452043A9
:1000B0004F4E54524F4C2043454E545245000D0A6A
:1000C0003D3D3D3D3D3D3D3D3D3D3D3D3D3D3D3D60
:1000D0003D3D3D3D3D3D3D3D3D3D3D3D3D3D3D3D50
:1000E0000D0A000D0A4D454E55000D0A312E2056C1
:1000F00069657720456E7669726F6E6D656E7461A5
:100100006C2044617461000D0A322E2045786974B8
:10011000000D0A456E7465722043686F6963653A25
:1001200020000D0A0D0A526563656976696E6720C5
:10013000446174612E2E2E0D0A000D0A526563650E
:1001400069766564205061636B65743A000D0A003E
:100150000D0A53797374656D20457869740D0A0032
:100160000D0A496E76616C69642043686F69636546
:030170000D0A0075
:10017400CF93DF93CDB7DEB7C054D1090FB6F8944F
:10018400DEBF0FBECDBF60E875E280E090E00E9464
:10019400760160E870E080E00E94600163EA70E04C
:1001A40080E00E9460016EEB70E080E00E946001DC
:1001B40063EE70E080E00E9460016AEE70E080E02F
:1001C4000E94600167E071E080E00E94600161E1EB
:1001D40071E080E00E9460010E949601182F0E9445
:1001E4009D01113391F562E271E080E00E946001AB
:1001F40000E010E00E9496018A3061F0E1E0F0E056
:10020400EC0FFD1FE00FF11F80830F5F1F4F0F33B3
:10021400110584F3CE0101967C01FC01E00FF11F6E
:1002240010826AE371E080E00E9460016DE471E095
:1002340080E00E946001B70180E80E9460016DE4E3
:1002440071E080E00E9460010DC0123331F460E57A
:1002540071E080E00E94600105C060E671E080E02A
:100264000E9460019FEF23ED80E391502040804085
:08027400E1F700C000009CCF7F
:10027C00A1E21A2EAA1BBB1BFD010DC0AA1FBB1F9E
:10028C00EE1FFF1FA217B307E407F50720F0A21B10
:10029C00B30BE40BF50B661F771F881F991F1A947D
:1002AC0069F760957095809590959B01AC01BD01A7
:0402BC00CF010895D1
:1002C000CF92DF92EF926B01E82E06C09FEFC91A22
:1002D000D90AE90A0E949D01F6018491E7FC808118
:0C02E0008111F4CFEF90DF90CF900895D3
:1002EC009B01AC0160E472E48FE090E00E943E015F
:1002FC00215031093093C5002093C40088E18093CC
:0A030C00C10086E08093C20008954E
:10031600EC010E94A9010E94A801CE010E94AA0137
:06032600CE010E94A601B9
:0E032C008091C0008823E4F78091C6000895F8
:0E033A009091C00095FFFCCF8093C6000895FF
:040348000C94000011
:04034C000E943E00CD
:0203500008950E
:0203520008950C
:0203540008950A
:00000001FF
