:100000000C9437000C9414070C9414070C941407E8
:100010000C9414070C9414070C9414070C941407F4
:100020000C9414070C9414070C9414070C941703E5
:100030000C9414070C9414070C9414070C941407D4
:100040000C9414070C9414070C9414070C941407C4
:100050000C9414070C9414070C9414070C941407B4
:100060000C9414070C9414070100010B8000112458
:100070001FBECFEFD8E0DEBFCDBFE8E6F0E040E046
:1000800017C0B591A59135912591059107FD0CC03B
:1000900095918591EF01F92FE82F05900D92A21708
:1000A000B307D9F7FE0104C01D92A217B307E1F709
:1000B000ED36F40731F70E940E010C94B006F89467
:0200C000FFCF70
:1000C2004C6576656C3A0025004261743A00560030
:1000D2004641554C5400503A4F4E00503A4F464616
:1000E20000534D41525420574154455200535953E5
:0A00F20054454D2053544152540070
:1000FC00CF92DF92EF92FF920F931F93CF93DF93E8
:10010C00182FEB01C42ED22E81E00E94DF058FE95F
:10011C009FE00197F1F700C0000060E080E00E94D2
:10012C00D60662EC70E080E00E940B06812F90E016
:10013C000E94BF0269EC70E080E00E940B0660E058
:10014C0081E00E94D6066BEC70E080E00E940B060A
:10015C007E01F694E794F694E794F694E79497016D
:10016C00A5ECB0E20E948A068C01129502950F70E4
:10017C0001271F700127C8010E94BF028EE20E9456
:10018C00F50528EE33E0029FC001039F900D129FEE
:10019C00900D11249E01281B390B36952795369509
:1001AC002795ABE7B4E10E948A06969587950E9445
:1001BC00BF0260ED70E080E00E940B06DD2051F084
:1001CC006BE080E00E94D60662ED70E080E00E9459
:1001DC000B0615C0CC2051F06AE081E00E94D606D7
:1001EC0068ED70E080E00E940B0609C06AE081E0D7
:1001FC000E94D6066DED70E080E00E940B06DF9148
:10020C00CF911F910F91FF90EF90DF90CF900895B9
:10021C00CF93DF9300D0CDB7DEB70E94C5060E9406
:10022C0099060E94AB050E9434040E94CE06789475
:10023C0081E00E94DF0560E080E00E94D60663EE5C
:10024C0070E080E00E940B0660E081E00E94D60620
:10025C006FEE70E080E00E940B062FEF83ED90E3D1
:10026C00215080409040E1F700C00000CE01019683
:10027C000E946A038130F9F080910801833018F4F0
:10028C008F5F8093080180910801833010F00E94E9
:10029C00CE060E948F0521E040E0BC0180E00E9468
:1002AC007E002FEF84E39CE0215080409040E1F7EA
:1002BC0000C00000DBCF1092080189819A810E9456
:1002CC00B203182F0E948F057C01812F0E94FE041F
:1002DC0020E040910901B701812F0E947E002FEF91
:1002EC0084E39CE0215080409040E1F700C0000086
:0202FC00BDCF74
:1002FE0010C00E94EB0658F00E94E40640F029F46C
:10030E005F3F29F00C94F90651110C94F3060C94EE
:10031E0011070E944B0568F39923B1F3552391F30E
:10032E00951B550BBB27AA2762177307840738F056
:10033E009F5F5F4F220F331F441FAA1FA9F335D0B3
:10034E000E2E3AF0E0E832D091505040E695001C67
:10035E00CAF72BD0FE2F29D0660F771F881FBB1F21
:10036E00261737074807AB07B0E809F0BB0B802DFF
:10037E00BF01FF2793585F4F3AF09E3F510578F02B
:10038E000C94F9060C94F3065F3FE4F3983ED4F315
:10039E00869577956795B795F7959F5FC9F7880FFF
:1003AE00911D9695879597F90895E1E0660F771F51
:1003BE00881FBB1F621773078407BA0720F0621BE2
:0E03CE00730B840BBA0BEE1F88F7E0950895B1
:1003DC000FC00E94E40638F00E94EB0620F0952333
:1003EC0011F00C94F9060C94110711240C94F306DB
:1003FC000E944B0570F3959FC1F3950F50E0551F6C
:10040C00629FF001729FBB27F00DB11D639FAA275D
:10041C00F00DB11DAA1F649F6627B00DA11D661FAC
:10042C00829F2227B00DA11D621F739FB00DA11DCD
:10043C00621F839FA00D611D221F749F3327A00D87
:10044C00611D231F849F600D211D822F762F6A2F23
:10045C0011249F5750409AF0F1F088234AF0EE0F88
:10046C00FF1FBB1F661F771F881F91505040A9F7B5
:10047C009E3F510580F00C94F9060C94F3065F3FF7
:10048C00E4F3983ED4F3869577956795B795F795F1
:10049C00E7959F5FC1F7FE2B880F911D9695879569
:0404AC0097F908951F
:1004B00011C00E94E40638F00E94EB0620F039F4E7
:1004C0009F3F19F426F40C9411070EF4E095E7FB16
:1004D0000C94F906E92F0E944B0558F3BA176207EE
:1004E00073078407950720F079F4A6F50C94F206BB
:1004F0000EF4E0950B2EBA2FA02D0B01B90190013F
:100500000C01CA01A0011124FF27591B99F0593F82
:1005100050F4503E68F11A16F040A22F232F342FCA
:100520004427585FF3CF469537952795A795F04018
:100530005395C9F77EF41F16BA0B620B730B840B2D
:10054000BAF09150A1F0FF0FBB1F661F771F881FE5
:10055000C2F70EC0BA0F621F731F841F48F487953D
:1005600077956795B795F7959E3F08F0B0CF93952F
:0E057000880F08F09927EE0F9795879508954C
:10057E001F93CF93DF9300D000D000D0CDB7DEB75E
:10058E00AC01892B91F580E30E94F5053FC09A01DD
:10059E00ADECBCEC0E948A0696958795969587954C
:1005AE00969587959C01220F331F880F991F880FF0
:1005BE00991F880F991F820F931F9A01281B390BC1
:1005CE00C901E1E0F0E0EC0FFD1FE10FF11D805DD0
:1005DE0080839A010E948A06AC01569547955695DE
:1005EE004795569547951F5F01C010E0411551057F
:1005FE0071F60AC01150E1E0F0E0EC0FFD1FE10FC3
:10060E00F11D80810E94F5051111F4CF26960FB6CB
:10061E00F894DEBF0FBECDBFDF91CF911F9108952D
:10062E001F920F920FB60F9211242F934F935F9339
:10063E006F937F938F939F93AF93BF93809104019A
:10064E0090910501A0910601B09107010196A11D9F
:10065E00B11D8093040190930501A0930601B09300
:10066E00070180910A01882301F180910401909184
:10067E000501A0910601B091070140910001509132
:10068E0001016091020170910301841B950BA60B71
:10069E00B70B88359240A105B10538F085B18E7F34
:1006AE0085B91092090110920A01BF91AF919F91E5
:1006BE008F917F916F915F914F912F910F900FBE00
:0606CE000F901F9018952B
:1006D400DF92EF92FF920F931F93CF93DF93CDB7E7
:1006E400DEB72A970FB6F894DEBF0FBECDBF7C01EC
:1006F400D12C1DC00D2D10E00E946E04F801EE0FE8
:10070400FF1F21E030E02C0F3D1FE20FF31F918308
:1007140080830E946A068823A9F03FE788E391E07A
:10072400315080409040E1F700C00000D394E4E0F1
:10073400ED1500F7CE0101960E94D204F7019183D2
:10074400808381E02A960FB6F894DEBF0FBECDBF3A
:10075400DF91CF911F910F91FF90EF90DF9008955B
:10076400CF92DF92EF92FF92BC0180E090E00E9472
:10077400F7039B01AC0160E070E088EC92E40E9416
:10078400DD0620E030E040EA52E40E94090720E060
:1007940030E048EC52E40E940D076B017C0120E03C
:1007A40030E0A9010E94FF0688231CF4C12CD12C3F
:1007B400760120E030E048EC52E4C701B6010E9423
:1007C4000407181644F40F2EC12CD12CF8ECEF2E8C
:1007D400F2E4FF2EF02DC701B6010E94A304862F78
:0A07E400FF90EF90DF90CF90089592
:1007EE00E89409C097FB3EF49095809570956195BD
:1007FE007F4F8F4F9F4F9923A9F0F92F96E9BB2773
:10080E009395F695879577956795B795F111F8CFEE
:10081E00FAF4BB0F11F460FF1BC06F5F7F4F8F4F59
:10082E009F4F16C0882311F096E911C0772321F04F
:10083E009EE8872F762F05C0662371F096E8862FE7
:10084E0070E060E02AF09A95660F771F881FDAF73E
:0A085E00880F9695879597F9089585
:1008680084B1866084B98AB1806F8AB98FE39CE9C4
:100878000197F1F700C0000085B18D7F85B983E04D
:100888000E94C5058FE097E20197F1F700C00000CC
:1008980083E00E94C5058BE291E00197F1F700C063
:1008A800000083E00E94C50582E00E94C50588E239
:1008B8000E94DF058CE00E94DF0581E00E94DF05D1
:1008C8008FE99FE00197F1F700C0000086E00E94E1
:0408D800DF0508959B
:1008DC000E94360680E090E0DC010DC022E02A95F3
:1008EC00F1F700C00196A11DB11D813325E79207D8
:1008FC00A105B105E0F45B9BF1CF20E030E00AC02C
:10090C0082E08A95F1F700C02F5F3F4F213385E7D6
:10091C00380780F45B99F4CFAFE9B6E40E948A06FD
:10092C00929582958F7089279F708927089580E012
:0A093C0090E0089580E090E0089537
:100946000E94530588F09F5798F0B92F9927B75101
:10095600B0F0E1F0660F771F881F991F1AF0BA955D
:10096600C9F714C0B13091F00E94F206B1E00895C3
:100976000C94F206672F782F8827B85F39F0B93FB5
:10098600CCF3869577956795B395D9F73EF4909510
:0E0996008095709561957F4F8F4F9F4F08950C
:1009A400CF93DF93EC0180E020C061E0680F962FC5
:1009B40019C0E92FF0E0EE0FFF1FEC0FFD1F40817F
:1009C4005181A82FB0E0AA0FBB1FAC0FBD1F2D9102
:1009D4003C9111974217530720F44D935C93318354
:1009E40020839F5F953028F3862F8530F0F28C8129
:0809F4009D81DF91CF91089570
:1009FC008F31E8F480910901811122C085B18160A9
:100A0C0085B981E08093090180930A0180910401EA
:100A1C0090910501A0910601B0910701809300010E
:100A2C0090930101A0930201B093030108958035C6
:100A3C0038F085B18E7F85B91092090110920A01A8
:020A4C0008950B
:100A4E00990F0008550FAA0BE0E8FEEF16161706D1
:100A5E00E807F907C0F012161306E407F50798F039
:100A6E00621B730B840B950B39F40A2661F0232B52
:100A7E00242B252B21F408950A2609F4A140A695CE
:080A8E008FEF811D811D089509
:100A960057FD9058440F551F59F05F3F71F0479529
:100AA600880F97FB991F61F09F3F79F0879508950E
:100AB600121613061406551FF2CF4695F1DF08C02D
:100AC600161617061806991FF1CF8695710561054A
:040AD60008940895E3
:100ADA00A1E21A2EAA1BBB1BFD010DC0AA1FBB1F38
:100AEA00EE1FFF1FA217B307E407F50720F0A21BAA
:100AFA00B30BE40BF50B661F771F881F991F1A9417
:100B0A0069F760957095809590959B01AC01BD0140
:040B1A00CF0108956A
:100B1E0081E00E9421069C01A4EEBCE00E948A06A0
:100B2E002FEF33E040E050E00E946D0560E874E87E
:100B3E008EE190E00E947A0620E432E44FE050E02D
:080B4E000E946D05C901089524
:100B560010928000E1E8F0E0108280818860808356
:100B660080818460808380818160808383E89EE1C8
:100B76009093890080938800EFE6F0E080818260A0
:040B860080830895CB
:100B8A009BB19F709BB980FF03C09BB190619BB9D9
:100B9A0081FF03C09BB190629BB982FF03C09BB1E6
:100BAA0090649BB983FF03C08BB180688BB90E94A4
:040BBA00480608954C
:100BBE00CF93C82F85B18D7F85B98C2F82958F707D
:100BCE000E94C5058C2F8F700E94C5058FE99FE08E
:0C0BDE000197F1F700C00000CF910895CE
:100BEA00CF93C82F85B1826085B98C2F82958F707B
:100BFA000E94C5058C2F8F700E94C50587EC90E076
:0C0C0A000197F1F700C00000CF910895A1
:100C1600CF92DF92EF926B01E82E06C00E94F50597
:100C26008FEFC81AD80AE80AF6018491E7FC80819A
:0C0C36008111F4CFEF90DF90CF90089573
:100C4200ECE7F0E09081907F8F70892B8083EAE758
:100C5200F0E080818064808380917A0086FDFCCF01
:0A0C620080917800909179000895C8
:100C6C008BB18B7F8BB985E08A95F1F700008BB146
:100C7C0084608BB98AE18A95F1F700C08BB18B7FC8
:040C8C008BB9089583
:100C900085B1846085B982E08A95F1F700C085B19D
:100CA0008B7F85B987EC90E00197F1F700C00000D9
:020CB0000895A5
:100CB200092E0394000C11F4882352F0BB0F40F468
:100CC200BF2B11F460FF04C06F5F7F4F8F4F9F4FA8
:020CD200089583
:100CD400009741F08530910538F08139914030F02A
:100CE40080E0089580E0089580E0089581E008950B
:100CF400DB018F939F930E94A506BF91AF91A29FA2
:100D0400800D911DA39F900DB29F900D1124089505
:100D1400A29FB001B39FC001A39F700D811D112438
:0E0D2400911DB29F700D811D1124911D089527
:100D320080E480937C0086E880937A00EEE7F0E01E
:080D4200808182608083089526
:100D4A000E948A06A59F900DB49F900DA49F800DC6
:060D5A00911D1124089513
:100D6000EC010E9419070E941807CE010E941A0781
:060D7000CE010E941607EF
:100D76008AB184608AB98AB1877F8AB98BB18B7F41
:040D86008BB9089588
:100D8A0084B1816084B985B18E7F85B90E94BB0622
:020D9A000895BA
:100D9C0085B18E7F85B91092090110920A010895D0
:0E0DAC008111605C862F80680E94DF0508952B
:0E0DBA005058BB27AA270E9458020C945906D5
:0E0DC80000240A941616170618060906089548
:0E0DD60000240A94121613061406050608954A
:0E0DE400E894BB2766277727CB0197F908957F
:0C0DF20097F99F6780E870E060E00895CA
:0A0DFE000E94270508F481E0089523
:0A0E08000E94270508F48FEF0895FB
:080E12000E947F010C945906B7
:080E1A000E94EE010C94590640
:060E22009FEF80EC089533
:040E28000C94000026
:040E2C000E945F00C1
:020E3000089523
:020E3200089521
:020E340008951F
:00000001FF
