:100000000C9434000C949C000C949C000C949C0068
:100010000C949C000C949C000C949C000C949C00F0
:100020000C949C000C949C000C949C000C949C00E0
:100030000C949C000C949C000C949C000C949C00D0
:100040000C949C000C949C000C949C000C949C00C0
:100050000C949C000C949C000C949C000C949C00B0
:100060000C949C000C949C0011241FBECFEFD8E090
:10007000DEBFCDBF0E945C000C946800F894FFCFF7
:10008000CF93C82F0E94900080E40E9473008C2FB1
:0C0090000E9473000E949800CF91089518
:10009C00CF930E94900081E40E9473000E947D0027
:0C00AC00C82F0E9498008C2FCF9108955F
:1000B8000E9487008FE00E9440000E944E008295B7
:0800C800807F0E944000F9CF87
:1000D000EC010E94A1000E94A000CE010E94A2009B
:0600E000CE010E949E000B
:1000E6008093BB0084E88093BC008091BC00882389
:0400F600E4F708958E
:1000FA0084E88093BC008091BC008823E4F7809157
:04010A00BB00089599
:10010E001092B90088E48093B80084E08093BC001C
:02011E00089542
:1001200084EA8093BC008091BC008823E4F70895A2
:0801300084E98093BC000895EE
:040138000C94000023
:04013C000E943E00DF
:02014000089520
:0201420008951E
:0201440008951C
:00000001FF
