:100000000C9434000C94CC000C94CC000C94CC00D8
:100010000C94CC000C94CC000C94CC000C94CC0030
:100020000C94CC000C94CC000C94CC000C94CC0020
:100030000C94CC000C94CC000C94CC000C94CC0010
:100040000C94CC000C94CC000C94CC000C94CC0000
:100050000C94CC000C94CC000C94CC000C94CC00F0
:100060000C94CC000C94CC0011241FBECFEFD8E030
:10007000DEBFCDBF0E9440000C949C00F894FFCFDF
:100080000E94B1000E9490006FE080E00E94590041
:1000900089E00E946F008295807F0E9482002FEF8E
:1000A00080E792E0215080409040E1F700C00000DE
:0200B000EFCF90
:1000B200CF93DF93D82FC62F85B18B7F85B980E48C
:1000C2000E94C2008D2F0E94C2008C2F0E94C2008B
:0C00D20085B1846085B9DF91CF9108955D
:1000DE00CF93C82F85B18B7F85B981E40E94C20072
:1000EE008C2F0E94C20080E00E94C20095B19460E5
:0600FE0095B9CF910895B1
:10010400CF93C82F0E94BA0080E40E94A7008C2FCE
:0C0114000E94A7000E94C800CF9108952F
:1001200084B18C6284B984B18F7E84B985B18460D6
:0801300085B981E58CBD08953D
:10013800EC010E94D1000E94D000CE010E94D200A2
:06014800CE010E94CE0072
:10014E008093BB0084E88093BC008091BC00882320
:04015E00E4F7089525
:100162001092B90088E48093B80084E08093BC00C8
:020172000895EE
:1001740084EA8093BC008091BC008823E4F708954E
:0C0184008EBD0DB407FEFDCF8EB50895B2
:0801900084E98093BC0008958E
:040198000C940000C3
:04019C000E943E007F
:0201A0000895C0
:0201A2000895BE
:0201A4000895BC
:00000001FF
