:100000000C9437000C9449060C9449060C9449064C
:100010000C9449060C9449060C9449060C94490624
:100020000C9449060C9449060C9449060C94490614
:100030000C9449060C9449060C9449060C94490604
:100040000C9449060C9449060C9449060C944906F4
:100050000C9449060C9449060C9449060C944906E4
:100060000C9449060C9449060100010180001124FA
:100070001FBECFEFD8E0DEBFCDBFE8E6F0E040E046
:1000800017C0B591A59135912591059107FD0CC03B
:1000900095918591EF01F92FE82F05900D92A21708
:1000A000B307D9F7FE0104C01D92A217B307E1F709
:1000B000ED36F40731F70E944A010C941A06F894C1
:0200C000FFCF70
:1000C2004C6576656C3A20002500566F6C3A20002C
:1000D200204C0054616E6B206F76657266696C6CA1
:1000E2006564005341564520425920004C4F572029
:1000F2005741544552204C564C00524546494C4CAF
:100102000054414E4B20454D5054590055524745DD
:100112004E540057415445522054414E4B005359BE
:100122005354454D2052454144590053454E534F77
:1001320052204552524F5200434845434B204843B8
:060142002D535230340081
:100148008F929F92AF92BF92CF92DF92EF92FF92DF
:100158000F931F93CF93DF93CDB7DEB72A970FB6D0
:10016800F894DEBF0FBECDBFF12C1CC00F2D10E0E0
:100178000E94FC02F801EE0FFF1F21E030E02C0F77
:100188003D1FE20FF31F91838083009709F46BC032
:100198003FEF86E791E0315080409040E1F700C0A2
:1001A8000000F39424E02F1508F7CE0101960E9471
:1001B80039042D813E81E980FA80C9018E199F0991
:1001C8004F8158850B811C81DA01A01BB10BE98591
:1001D800FA85BF01621B730BA817B90788F0681767
:1001E800790770F0C801A0E0B0E08E0D9F1DA11D39
:1001F800B11DBC01CD01620F731F811D911D21C06E
:100208008A179B0788F06A177B0770F0C901A0E07E
:10021800B0E0800F911FA11DB11DBC01CD01640F7D
:10022800751F811D911D0DC0CA01A0E0B0E0820FAD
:10023800931FA11DB11DBC01CD016E0F7F1F811D34
:10024800911D2BEA3AEA4AEA5AEA0E940E0400E2B1
:100258000E948504822E932EA42EB52EB694A794C0
:1002680097948794C4012A960FB6F894DEBF0FBE00
:10027800CDBFDF91CF911F910F91FF90EF90DF904D
:0C028800CF90BF90AF909F908F90089592
:100294000E942F062FEF80E792E02150804090408B
:1002A400E1F700C000000E94A104809300018111C5
:1002B40003C087E2809300010E94CA030E94B7052D
:1002C4000E94250660E080E00E94030665E171E07B
:1002D40080E00E940F0560E081E00E94030660E276
:1002E40071E080E00E940F052FEF83ED90E3215031
:1002F40080409040E1F700C000000E94A4000097F5
:10030400F1F40E94250660E080E00E9403066DE29D
:1003140071E080E00E940F0560E081E00E94030626
:100324006AE371E080E00E940F052FEF8EE994E20A
:10033400215080409040E1F700C00000DECF0E94D1
:100344006605EC010E942505182FCE010E94F605D2
:100354007C01C13D27E0D20778F0CE010E943B0525
:100364000E94EA018FEF93ED20E3815090402040FA
:10037400E1F700C00000C1CF11110CC00E9490052C
:100384008FEF93ED20E3815090402040E1F700C0CF
:100394000000B3CF153160F40E947B058FEF93ED1D
:1003A40020E3815090402040E1F700C00000A5CF39
:1003B4000E942506B701812F0E9469038FEF94E301
:1003C4002CE0815090402040E1F700C0000095CF20
:1003D400CF92DF92EF92FF920F931F93CF93DF930D
:1003E400AC01FC01F695E795F695E795F695E7954A
:1003F4009F01A5ECB0E20E94DA058C0112950295EA
:100404000F7001271F70012728EE33E0029FC001FF
:10041400039F900D129F900D11249A01281B390BF4
:100424003695279536952795ABE7B4E10E94DA0512
:100434007C01F694E7949A0136952795369527958D
:100444000E94DA059C013695279564E6629FC001F7
:10045400639F900D11249A01281B390BADECBCEC61
:100464000E94DA056C01D694C794D694C794D694A6
:10047400C7949A010E94DA05EC01D695C795D695E2
:10048400C795D695C795CE01880F991FCC0FDD1F50
:10049400CC0FDD1FCC0FDD1FC80FD91FCA018C1B69
:1004A4009D0BEC010E94250660E080E00E9403069B
:1004B40065ED70E080E00E940F0560E081E00E943D
:1004C400030665EE70E080E00E940F05C8010E94FB
:1004D40088028EE20E94A50580E38E0D0E94A50588
:1004E40080E38C0D0E94A5058C2F805D0E94A505DC
:1004F40062ED70E080E00E940F05DF91CF911F91C3
:0C0504000F91FF90EF90DF90CF900895D2
:10051000EF92FF920F931F93CF93DF93EC018436FA
:100520009105D8F17C01F694E794F694E79497014D
:10053000ABE7B4E10E94DA058C011695079580E3DC
:10054000800F0E94A50524E6209FC001219F900DE9
:100550001124C81BD90B9E01ADECBCEC0E94DA053E
:100560008C0116950795169507951695079580E3C6
:10057000800F0E94A505C801880F991F000F111F49
:10058000000F111F000F111F080F191FCE01801B34
:10059000910B805D0E94A50528C08A30910510F15D
:1005A0009C01ADECBCEC0E94DA058C011695079518
:1005B000169507951695079580E3800F0E94A5056F
:1005C000C801880F991F000F111F000F111F000F86
:1005D000111F080F191FCE01801B910B805D0E9417
:1005E000A50503C0805D0E94A505DF91CF911F91F5
:0805F0000F91FF90EF900895B8
:1005F8000F931F938BB18B7F8BB905E00A95F1F7A9
:1006080000008BB184608BB91AE11A95F1F700C02C
:100618008BB18B7F8BB980E090E0DC010EC022E0CB
:100628002A95F1F700C00196A11DB11D803335E769
:100638009307A105B10508F043C04B9BF0CF10927A
:1006480085001092840082E08093810080E090E031
:10065800DC010EC00196A11DB11D803305E790078E
:10066800A105B10528F01092810080E090E02AC031
:100678004B99F0CF10928100809184009091850071
:10068800A0E0B0E0880F991FAA1FBB1FAC01BD01F5
:10069800440F551F661F771F440F551F661F771F8E
:1006A8008C019D01040F151F261F371FC901B801B2
:1006B8002AE330E040E050E00E946104C90102C032
:0A06C80080E090E01F910F9108956B
:1006D200FF920F931F93CF93DF93F82EAB01FB0191
:1006E200F695E795F695E795F695E7959F01A5ECC2
:1006F200B0E20E94DA05EC01D295C295CF70CD2707
:10070200DF70CD2728EE33E0C29FC001C39F900D5A
:10071200D29F900D11249A01281B390B36952795EB
:1007220036952795ABE7B4E10E94DA058C01169560
:10073200079560E080E00E94030662EC70E080E0D2
:100742000E940F058F2D90E00E9488026AEC70E0F3
:1007520080E00E940F0560E081E00E9403066CECDD
:1007620070E080E00E940F05CE010E9488028EE2B6
:100772000E94A50580E3800F0E94A50562ED70E04E
:1007820080E00E940F05DF91CF911F910F91FF90A2
:020792000895C8
:100794002FE788E391E0215080409040E1F700C0CA
:1007A400000060E083E00E94C9058FE097E20197B2
:1007B400F1F700C0000060E083E00E94C9058BE20D
:1007C40091E00197F1F700C0000060E083E00E942F
:1007D400C9058BE291E00197F1F700C0000060E0E9
:1007E40082E00E94C9058BE291E00197F1F700C015
:1007F400000088E20E94D9048CE00E94D90486E0BB
:100804000E94D90481E00E94D9048FE99FE00197F6
:08081400F1F700C00000089597
:10081C00E894DF93CF93FC01DB010E94DA057F9310
:10082C006F93E9019A01AC01BF93AF933F932F9360
:10083C00DF010E94DA0526F46C1B7D0B820B930BF7
:10084C009E01EB01FC010E943806AF91BF912F91E4
:10085C003F910E943806BE01CF01F9012F913F91C3
:06086C00CF91DF91089519
:10087200CF93BC0180E020C0C1E0C80F9C2F19C0FB
:10088200E92FF0E0EE0FFF1FE60FF71F40815181C5
:10089200A82FB0E0AA0FBB1FA60FB71F2D913C9146
:1008A20011974217530720F44D935C9331832083B1
:1008B2009F5F953028F38C2F8430F0F2CF9108950A
:1008C200A1E21A2EAA1BBB1BFD010DC0AA1FBB1F52
:1008D200EE1FFF1FA217B307E407F50720F0A21BC4
:1008E200B30BE40BF50B661F771F881F991F1A9431
:1008F20069F760957095809590959B01AC01BD015B
:04090200CF01089584
:1009060097FB10F8169400080F93083098F00850DB
:10091600232F342F452F562F672F782F892F902D71
:10092600F4CF05949795879577956795579547954D
:0C093600379527950A95AAF70F910895B0
:10094200CF93C0E206C08C2F0E94F50481110FC024
:10095200CF5FC832C0F3C8E306C08C2F0E94F504F3
:10096200811107C0CF5FC034C0F380E003C08C2F79
:0809720001C08C2FCF91089504
:10097A00CF93C82F0E940F06883029F0803119F0D2
:10098A000E9441060FC080910001880F0E94E9056C
:10099A00883119F00E94410605C08C2F0E94E90592
:0809AA000E944106CF9108955F
:1009B200CF93C82F60E082958F700E94C90560E0D6
:1009C2008C2F8F700E94C905C150C23038F48FE954
:1009D2009FE00197F1F700C0000004C095E89A95E6
:0809E200F1F70000CF91089528
:1009EA00CF93C82F0E940F06883031F0803121F052
:1009FA000E94410680E00CC08C2F880F0E94E905F6
:100A0A00C82F0E944106C83111F481E001C080E07C
:040A1A00CF910895DB
:100A1E00CF92DF92EF926B01E82E06C00E94A505E1
:100A2E008FEFC81AD80AE80AF6018491E7FC808194
:0C0A3E008111F4CFEF90DF90CF9008956D
:100A4A009C01A4E6B0E00E94DA0528E938E040E01B
:100A5A0050E00E946104253631054105510520F018
:0C0A6A0024E630E040E050E0822F0895C8
:100A7600813D27E0920778F09C01205D3740A0EA8F
:100A8600B5E60E94DA0528EE33E040E050E00E9429
:0C0A96006104C901089580E090E008951B
:100AA200CF93C82F84600E94BD0482E08A95F1F73B
:100AB20000C08C2F8B7F0E94BD0487EC90E00197D1
:0A0AC200F1F700C00000CF91089585
:100ACC008F3C28E0920758F42FEC38E0281B390BA8
:100ADC00293988E0380730F4822F932F089580E06D
:0A0AEC0090E0089588E998E008956D
:100AF6000E94250660E080E00E9403066EEE70E02C
:100B060080E00E940F0560E081E00E9403066CEF22
:0A0B160070E080E00E940F050895D2
:100B20000E94250660E080E00E94030663E071E019
:100B300080E00E940F0560E081E00E9403066EE005
:0A0B400071E080E00E940F050895A7
:100B4A00CF93C82F61E082958F700E94C90561E03A
:100B5A008C2F8F700E94C90585E88A95F1F70000ED
:040B6A00CF9108958A
:100B6E008AB184608AB98AB1877F8AB98BB18B7F4B
:100B7E008BB9109280001092810010928500109215
:040B8E008400089542
:100B9200982F611102C088E001C089E090FD806158
:100BA20091FD806292FD806493FD80680E945105F0
:020BB2000895A4
:100BB400A29FB001B39FC001A39F700D811D11249A
:0E0BC400911DB29F700D811D1124911D089589
:100BD2008093BB0084E88093BC008091BC00882392
:0A0BE200E4F78091B900887F0895C0
:100BEC009C01A0EAB5E60E94DA0528EE33E040E06D
:0A0BFC0050E00E946104C901089551
:100C0600811105C080E8860F0E94D904089580EC02
:080C1600860F0E94D904089525
:100C1E0084EA8093BC008091BC008823E4F7809125
:060C2E00B900887F089563
:100C3400EC010E944E060E944D06CE010E944F0612
:060C4400CE010E944B06E8
:100C4A0081E00E94D9048FE99FE00197F1F700C083
:040C5A0000000895F9
:100C5E001092B90080E28093B80084E08093BC00CB
:020C6E000895E7
:100C70000E94DA05460F571FC81FD91F08F4319686
:020C80000895D5
:100C820084E98093BC008AE18A95F1F700C0089557
:040C92000C940000BE
:040C96000E945F0059
:020C9A000895BB
:020C9C000895B9
:020C9E000895B7
:00000001FF
